8=FIX.4.4|9=99|35=A|34=1|49=MY-ACCEPTOR-SERVICE|52=20200507-09:35:53.429|56=MY-INITIATOR-CLIENT1|98=0|108=5|141=Y|10=020|8=FIX.4.4|9=82|35=0|34=2|49=MY-ACCEPTOR-SERVICE|52=20200507-09:35:58.811|56=MY-INITIATOR-CLIENT1|10=228|8=FIX.4.4|9=82|35=0|34=3|49=MY-ACCEPTOR-SERVICE|52=20200507-09:36:03.816|56=MY-INITIATOR-CLIENT1|10=225|8=FIX.4.4|9=127|35=j|34=4|49=MY-ACCEPTOR-SERVICE|52=20200507-09:36:07.709|56=MY-INITIATOR-CLIENT1|45=4|58=Unsupported Message Type|372=D|380=3|10=081|8=FIX.4.4|9=127|35=j|34=5|49=MY-ACCEPTOR-SERVICE|52=20200507-09:36:07.709|56=MY-INITIATOR-CLIENT1|45=5|58=Unsupported Message Type|372=D|380=3|10=083|8=FIX.4.4|9=127|35=j|34=6|49=MY-ACCEPTOR-SERVICE|52=20200507-09:36:07.709|56=MY-INITIATOR-CLIENT1|45=6|58=Unsupported Message Type|372=D|380=3|10=085|8=FIX.4.4|9=127|35=j|34=7|49=MY-ACCEPTOR-SERVICE|52=20200507-09:36:07.709|56=MY-INITIATOR-CLIENT1|45=7|58=Unsupported Message Type|372=D|380=3|10=087|8=FIX.4.4|9=82|35=0|34=8|49=MY-ACCEPTOR-SERVICE|52=20200507-09:36:12.808|56=MY-INITIATOR-CLIENT1|10=231|8=FIX.4.4|9=82|35=0|34=9|49=MY-ACCEPTOR-SERVICE|52=20200507-09:36:17.809|56=MY-INITIATOR-CLIENT1|10=238|8=FIX.4.4|9=83|35=0|34=10|49=MY-ACCEPTOR-SERVICE|52=20200507-09:36:22.802|56=MY-INITIATOR-CLIENT1|10=012|8=FIX.4.4|9=83|35=0|34=11|49=MY-ACCEPTOR-SERVICE|52=20200507-09:36:27.812|56=MY-INITIATOR-CLIENT1|10=019|