8=FIX.4.4|9=95|35=A|34=1|49=MY-INITIATOR-CLIENT1|52=20200422-09:31:46.615|56=MY-ACCEPTOR-SERVICE|108=30|141=Y|10=086|
8=FIX.4.4|9=100|35=A|34=1|49=MY-ACCEPTOR-SERVICE|52=20200422-09:31:46.699|56=MY-INITIATOR-CLIENT1|98=0|108=30|141=Y|10=100|
8=FIX.4.4|9=99|35=A|34=1|49=MY-INITIATOR-CLIENT1|52=20200422-09:32:00.609|56=MY-ACCEPTOR-SERVICE|98=0|108=5|141=Y|10=005|
8=FIX.4.4|9=99|35=A|34=1|49=MY-ACCEPTOR-SERVICE|52=20200422-09:32:00.633|56=MY-INITIATOR-CLIENT1|98=0|108=5|141=Y|10=002|
8=FIX.4.4|9=95|35=A|34=1|49=MY-INITIATOR-CLIENT1|52=20200422-11:10:59.997|56=MY-ACCEPTOR-SERVICE|108=30|141=Y|10=093|
8=FIX.4.4|9=139|35=5|34=2|49=MY-ACCEPTOR-SERVICE|52=20200422-11:11:00.040|56=MY-INITIATOR-CLIENT1|58=Invalid Logon message: Required tag missing, field=98|10=157|
8=FIX.4.4|9=99|35=A|34=1|49=MY-INITIATOR-CLIENT1|52=20200422-11:11:05.995|56=MY-ACCEPTOR-SERVICE|98=0|108=5|141=Y|10=008|
8=FIX.4.4|9=99|35=A|34=1|49=MY-ACCEPTOR-SERVICE|52=20200422-11:11:06.023|56=MY-INITIATOR-CLIENT1|98=0|108=5|141=Y|10=247|
8=FIX.4.4|9=95|35=A|34=1|49=MY-INITIATOR-CLIENT1|52=20200422-11:16:46.900|56=MY-ACCEPTOR-SERVICE|108=30|141=Y|10=079|
8=FIX.4.4|9=139|35=5|34=2|49=MY-ACCEPTOR-SERVICE|52=20200422-11:16:46.940|56=MY-INITIATOR-CLIENT1|58=Invalid Logon message: Required tag missing, field=98|10=181|
8=FIX.4.4|9=99|35=A|34=1|49=MY-INITIATOR-CLIENT1|52=20200422-11:16:52.895|56=MY-ACCEPTOR-SERVICE|98=0|108=5|141=Y|10=014|
8=FIX.4.4|9=99|35=A|34=1|49=MY-ACCEPTOR-SERVICE|52=20200422-11:16:52.923|56=MY-INITIATOR-CLIENT1|98=0|108=5|141=Y|10=006|
8=FIX.4.4|9=95|35=A|34=1|49=MY-INITIATOR-CLIENT1|52=20200422-11:17:44.017|56=MY-ACCEPTOR-SERVICE|108=30|141=Y|10=077|
8=FIX.4.4|9=139|35=5|34=2|49=MY-ACCEPTOR-SERVICE|52=20200422-11:17:44.060|56=MY-INITIATOR-CLIENT1|58=Invalid Logon message: Required tag missing, field=98|10=173|
8=FIX.4.4|9=95|35=A|34=1|49=MY-INITIATOR-CLIENT1|52=20200422-11:54:07.966|56=MY-ACCEPTOR-SERVICE|108=30|141=Y|10=090|
8=FIX.4.4|9=139|35=5|34=3|49=MY-ACCEPTOR-SERVICE|52=20200422-11:54:07.996|56=MY-INITIATOR-CLIENT1|58=Invalid Logon message: Required tag missing, field=98|10=192|
8=FIX.4.4|9=99|35=A|34=1|49=MY-INITIATOR-CLIENT1|52=20200422-11:54:13.962|56=MY-ACCEPTOR-SERVICE|98=0|108=5|141=Y|10=008|
8=FIX.4.4|9=99|35=A|34=1|49=MY-ACCEPTOR-SERVICE|52=20200422-11:54:13.992|56=MY-INITIATOR-CLIENT1|98=0|108=5|141=Y|10=011|
8=FIX.4.4|9=95|35=A|34=1|49=MY-INITIATOR-CLIENT1|52=20200422-12:18:50.219|56=MY-ACCEPTOR-SERVICE|108=30|141=Y|10=080|
8=FIX.4.4|9=139|35=5|34=2|49=MY-ACCEPTOR-SERVICE|52=20200422-12:18:50.248|56=MY-INITIATOR-CLIENT1|58=Invalid Logon message: Required tag missing, field=98|10=180|
8=FIX.4.4|9=99|35=A|34=1|49=MY-INITIATOR-CLIENT1|52=20200422-12:18:56.219|56=MY-ACCEPTOR-SERVICE|98=0|108=5|141=Y|10=011|
8=FIX.4.4|9=99|35=A|34=1|49=MY-ACCEPTOR-SERVICE|52=20200422-12:18:56.251|56=MY-INITIATOR-CLIENT1|98=0|108=5|141=Y|10=007|
8=FIX.4.4|9=82|35=0|34=2|49=MY-ACCEPTOR-SERVICE|52=20200422-12:19:01.345|56=MY-INITIATOR-CLIENT1|10=210|
8=FIX.4.4|9=82|35=0|34=2|49=MY-INITIATOR-CLIENT1|52=20200422-12:19:01.346|56=MY-ACCEPTOR-SERVICE|10=211|
8=FIX.4.4|9=82|35=0|34=3|49=MY-ACCEPTOR-SERVICE|52=20200422-12:19:06.345|56=MY-INITIATOR-CLIENT1|10=216|
8=FIX.4.4|9=82|35=0|34=3|49=MY-INITIATOR-CLIENT1|52=20200422-12:19:06.346|56=MY-ACCEPTOR-SERVICE|10=217|
8=FIX.4.4|9=82|35=0|34=4|49=MY-ACCEPTOR-SERVICE|52=20200422-12:19:11.344|56=MY-INITIATOR-CLIENT1|10=212|
8=FIX.4.4|9=82|35=0|34=4|49=MY-INITIATOR-CLIENT1|52=20200422-12:19:11.346|56=MY-ACCEPTOR-SERVICE|10=214|
8=FIX.4.4|9=82|35=0|34=5|49=MY-ACCEPTOR-SERVICE|52=20200422-12:19:16.344|56=MY-INITIATOR-CLIENT1|10=218|
8=FIX.4.4|9=82|35=0|34=5|49=MY-INITIATOR-CLIENT1|52=20200422-12:19:16.345|56=MY-ACCEPTOR-SERVICE|10=219|
8=FIX.4.4|9=82|35=0|34=6|49=MY-ACCEPTOR-SERVICE|52=20200422-12:19:21.345|56=MY-INITIATOR-CLIENT1|10=216|
8=FIX.4.4|9=82|35=0|34=6|49=MY-INITIATOR-CLIENT1|52=20200422-12:19:21.346|56=MY-ACCEPTOR-SERVICE|10=217|
8=FIX.4.4|9=82|35=0|34=7|49=MY-ACCEPTOR-SERVICE|52=20200422-12:19:26.344|56=MY-INITIATOR-CLIENT1|10=221|
8=FIX.4.4|9=82|35=0|34=7|49=MY-INITIATOR-CLIENT1|52=20200422-12:19:26.345|56=MY-ACCEPTOR-SERVICE|10=222|
8=FIX.4.4|9=95|35=A|34=1|49=MY-INITIATOR-CLIENT1|52=20200422-12:20:14.986|56=MY-ACCEPTOR-SERVICE|108=30|141=Y|10=084|
8=FIX.4.4|9=139|35=5|34=8|49=MY-ACCEPTOR-SERVICE|52=20200422-12:20:15.002|56=MY-INITIATOR-CLIENT1|58=Invalid Logon message: Required tag missing, field=98|10=168|
8=FIX.4.4|9=99|35=A|34=1|49=MY-INITIATOR-CLIENT1|52=20200422-12:20:20.986|56=MY-ACCEPTOR-SERVICE|98=0|108=5|141=Y|10=006|
8=FIX.4.4|9=99|35=A|34=1|49=MY-ACCEPTOR-SERVICE|52=20200422-12:20:21.013|56=MY-INITIATOR-CLIENT1|98=0|108=5|141=Y|10=244|
8=FIX.4.4|9=155|35=D|34=2|49=MY-INITIATOR-CLIENT1|52=20200422-12:20:25.022|56=MY-ACCEPTOR-SERVICE|11=0.6138556313792741Client1|15=EUR|38=5000000|40=2|54=1|55=EUR/USD|59=0|10=167|
8=FIX.4.4|9=140|35=3|34=2|49=MY-ACCEPTOR-SERVICE|52=20200422-12:20:25.045|56=MY-INITIATOR-CLIENT1|45=2|58=Required tag missing, field=60|371=60|372=D|373=1|10=146|
8=FIX.4.4|9=91|35=1|34=3|49=MY-ACCEPTOR-SERVICE|52=20200422-12:20:29.344|56=MY-INITIATOR-CLIENT1|112=TEST|10=231|
8=FIX.4.4|9=91|35=0|34=3|49=MY-INITIATOR-CLIENT1|52=20200422-12:20:29.346|56=MY-ACCEPTOR-SERVICE|112=TEST|10=232|
8=FIX.4.4|9=82|35=0|34=4|49=MY-ACCEPTOR-SERVICE|52=20200422-12:20:34.344|56=MY-INITIATOR-CLIENT1|10=209|
8=FIX.4.4|9=82|35=0|34=4|49=MY-INITIATOR-CLIENT1|52=20200422-12:20:34.345|56=MY-ACCEPTOR-SERVICE|10=210|
8=FIX.4.4|9=155|35=D|34=5|49=MY-INITIATOR-CLIENT1|52=20200422-12:20:35.024|56=MY-ACCEPTOR-SERVICE|11=0.6778603840554897Client1|15=EUR|38=5000000|40=2|54=1|55=EUR/USD|59=0|10=189|
8=FIX.4.4|9=140|35=3|34=5|49=MY-ACCEPTOR-SERVICE|52=20200422-12:20:35.025|56=MY-INITIATOR-CLIENT1|45=5|58=Required tag missing, field=60|371=60|372=D|373=1|10=151|
8=FIX.4.4|9=82|35=0|34=6|49=MY-ACCEPTOR-SERVICE|52=20200422-12:20:40.345|56=MY-INITIATOR-CLIENT1|10=209|
8=FIX.4.4|9=82|35=0|34=6|49=MY-INITIATOR-CLIENT1|52=20200422-12:20:40.346|56=MY-ACCEPTOR-SERVICE|10=210|
8=FIX.4.4|9=155|35=D|34=7|49=MY-INITIATOR-CLIENT1|52=20200422-12:20:45.026|56=MY-ACCEPTOR-SERVICE|11=0.9668673655650828Client1|15=EUR|38=5000000|40=2|54=1|55=EUR/USD|59=0|10=197|
8=FIX.4.4|9=140|35=3|34=7|49=MY-ACCEPTOR-SERVICE|52=20200422-12:20:45.028|56=MY-INITIATOR-CLIENT1|45=7|58=Required tag missing, field=60|371=60|372=D|373=1|10=159|
8=FIX.4.4|9=91|35=1|34=8|49=MY-ACCEPTOR-SERVICE|52=20200422-12:20:48.344|56=MY-INITIATOR-CLIENT1|112=TEST|10=237|
8=FIX.4.4|9=91|35=0|34=8|49=MY-INITIATOR-CLIENT1|52=20200422-12:20:48.345|56=MY-ACCEPTOR-SERVICE|112=TEST|10=237|
8=FIX.4.4|9=82|35=0|34=9|49=MY-ACCEPTOR-SERVICE|52=20200422-12:20:53.345|56=MY-INITIATOR-CLIENT1|10=216|
8=FIX.4.4|9=82|35=0|34=9|49=MY-INITIATOR-CLIENT1|52=20200422-12:20:53.346|56=MY-ACCEPTOR-SERVICE|10=217|
8=FIX.4.4|9=156|35=D|34=10|49=MY-INITIATOR-CLIENT1|52=20200422-12:20:55.027|56=MY-ACCEPTOR-SERVICE|11=0.6693470583021763Client1|15=EUR|38=5000000|40=2|54=1|55=EUR/USD|59=0|10=222|
8=FIX.4.4|9=142|35=3|34=10|49=MY-ACCEPTOR-SERVICE|52=20200422-12:20:55.028|56=MY-INITIATOR-CLIENT1|45=10|58=Required tag missing, field=60|371=60|372=D|373=1|10=246|
8=FIX.4.4|9=83|35=0|34=11|49=MY-ACCEPTOR-SERVICE|52=20200422-12:21:00.345|56=MY-INITIATOR-CLIENT1|10=251|
8=FIX.4.4|9=83|35=0|34=11|49=MY-INITIATOR-CLIENT1|52=20200422-12:21:00.346|56=MY-ACCEPTOR-SERVICE|10=252|
8=FIX.4.4|9=156|35=D|34=12|49=MY-INITIATOR-CLIENT1|52=20200422-12:21:05.028|56=MY-ACCEPTOR-SERVICE|11=0.9136257561357699Client1|15=EUR|38=5000000|40=2|54=1|55=EUR/USD|59=0|10=235|
8=FIX.4.4|9=142|35=3|34=12|49=MY-ACCEPTOR-SERVICE|52=20200422-12:21:05.030|56=MY-INITIATOR-CLIENT1|45=12|58=Required tag missing, field=60|371=60|372=D|373=1|10=239|
8=FIX.4.4|9=95|35=A|34=1|49=MY-INITIATOR-CLIENT1|52=20200422-12:22:40.265|56=MY-ACCEPTOR-SERVICE|108=30|141=Y|10=075|
8=FIX.4.4|9=140|35=5|34=13|49=MY-ACCEPTOR-SERVICE|52=20200422-12:22:40.282|56=MY-INITIATOR-CLIENT1|58=Invalid Logon message: Required tag missing, field=98|10=214|
8=FIX.4.4|9=99|35=A|34=1|49=MY-INITIATOR-CLIENT1|52=20200422-12:22:46.265|56=MY-ACCEPTOR-SERVICE|98=0|108=5|141=Y|10=006|
8=FIX.4.4|9=99|35=A|34=1|49=MY-ACCEPTOR-SERVICE|52=20200422-12:22:46.291|56=MY-INITIATOR-CLIENT1|98=0|108=5|141=Y|10=005|
8=FIX.4.4|9=180|35=D|34=2|49=MY-INITIATOR-CLIENT1|52=20200422-12:22:50.306|56=MY-ACCEPTOR-SERVICE|11=0.9982678578145282Client1|15=EUR|38=5000000|40=2|54=1|55=EUR/USD|59=0|60=20200422-17:52:50.306|10=138|
8=FIX.4.4|9=127|35=j|34=2|49=MY-ACCEPTOR-SERVICE|52=20200422-12:22:50.309|56=MY-INITIATOR-CLIENT1|45=2|58=Unsupported Message Type|372=D|380=3|10=056|
8=FIX.4.4|9=82|35=0|34=3|49=MY-ACCEPTOR-SERVICE|52=20200422-12:22:55.345|56=MY-INITIATOR-CLIENT1|10=214|
8=FIX.4.4|9=82|35=0|34=3|49=MY-INITIATOR-CLIENT1|52=20200422-12:22:55.346|56=MY-ACCEPTOR-SERVICE|10=215|
8=FIX.4.4|9=179|35=D|34=4|49=MY-INITIATOR-CLIENT1|52=20200422-12:23:00.308|56=MY-ACCEPTOR-SERVICE|11=0.627919430629169Client1|15=EUR|38=5000000|40=2|54=1|55=EUR/USD|59=0|60=20200422-17:53:00.308|10=079|
8=FIX.4.4|9=127|35=j|34=4|49=MY-ACCEPTOR-SERVICE|52=20200422-12:23:00.308|56=MY-INITIATOR-CLIENT1|45=4|58=Unsupported Message Type|372=D|380=3|10=055|
8=FIX.4.4|9=82|35=0|34=5|49=MY-ACCEPTOR-SERVICE|52=20200422-12:23:05.344|56=MY-INITIATOR-CLIENT1|10=211|
8=FIX.4.4|9=82|35=0|34=5|49=MY-INITIATOR-CLIENT1|52=20200422-12:23:05.345|56=MY-ACCEPTOR-SERVICE|10=212|
8=FIX.4.4|9=178|35=D|34=6|49=MY-INITIATOR-CLIENT1|52=20200422-12:23:10.309|56=MY-ACCEPTOR-SERVICE|11=0.54675677451508Client1|15=EUR|38=5000000|40=2|54=1|55=EUR/USD|59=0|60=20200422-17:53:10.309|10=032|
8=FIX.4.4|9=127|35=j|34=6|49=MY-ACCEPTOR-SERVICE|52=20200422-12:23:10.310|56=MY-INITIATOR-CLIENT1|45=6|58=Unsupported Message Type|372=D|380=3|10=053|
8=FIX.4.4|9=82|35=0|34=7|49=MY-ACCEPTOR-SERVICE|52=20200422-12:23:15.345|56=MY-INITIATOR-CLIENT1|10=215|
8=FIX.4.4|9=82|35=0|34=7|49=MY-INITIATOR-CLIENT1|52=20200422-12:23:15.346|56=MY-ACCEPTOR-SERVICE|10=216|
8=FIX.4.4|9=181|35=D|34=8|49=MY-INITIATOR-CLIENT1|52=20200422-12:23:20.309|56=MY-ACCEPTOR-SERVICE|11=0.11404552555365388Client1|15=EUR|38=5000000|40=2|54=1|55=EUR/USD|59=0|60=20200422-17:53:20.309|10=174|
8=FIX.4.4|9=127|35=j|34=8|49=MY-ACCEPTOR-SERVICE|52=20200422-12:23:20.310|56=MY-INITIATOR-CLIENT1|45=8|58=Unsupported Message Type|372=D|380=3|10=058|
8=FIX.4.4|9=82|35=0|34=9|49=MY-ACCEPTOR-SERVICE|52=20200422-12:23:25.345|56=MY-INITIATOR-CLIENT1|10=218|
8=FIX.4.4|9=82|35=0|34=9|49=MY-INITIATOR-CLIENT1|52=20200422-12:23:25.346|56=MY-ACCEPTOR-SERVICE|10=219|
8=FIX.4.4|9=181|35=D|34=10|49=MY-INITIATOR-CLIENT1|52=20200422-12:23:30.310|56=MY-ACCEPTOR-SERVICE|11=0.8387112565645038Client1|15=EUR|38=5000000|40=2|54=1|55=EUR/USD|59=0|60=20200422-17:53:30.310|10=155|
8=FIX.4.4|9=129|35=j|34=10|49=MY-ACCEPTOR-SERVICE|52=20200422-12:23:30.312|56=MY-INITIATOR-CLIENT1|45=10|58=Unsupported Message Type|372=D|380=3|10=145|
8=FIX.4.4|9=95|35=A|34=1|49=MY-INITIATOR-CLIENT1|52=20200423-06:06:38.584|56=MY-ACCEPTOR-SERVICE|108=30|141=Y|10=092|
8=FIX.4.4|9=140|35=5|34=11|49=MY-ACCEPTOR-SERVICE|52=20200423-06:06:38.632|56=MY-INITIATOR-CLIENT1|58=Invalid Logon message: Required tag missing, field=98|10=224|
8=FIX.4.4|9=99|35=A|34=1|49=MY-INITIATOR-CLIENT1|52=20200423-06:06:44.588|56=MY-ACCEPTOR-SERVICE|98=0|108=5|141=Y|10=018|
8=FIX.4.4|9=99|35=A|34=1|49=MY-ACCEPTOR-SERVICE|52=20200423-06:06:44.629|56=MY-INITIATOR-CLIENT1|98=0|108=5|141=Y|10=014|
8=FIX.4.4|9=180|35=D|34=2|49=MY-INITIATOR-CLIENT1|52=20200423-06:06:48.644|56=MY-ACCEPTOR-SERVICE|11=0.4398933387443761Client1|15=EUR|38=5000000|40=2|54=1|55=EUR/USD|59=0|60=20200423-11:36:48.644|10=156|
8=FIX.4.4|9=127|35=j|34=2|49=MY-ACCEPTOR-SERVICE|52=20200423-06:06:48.669|56=MY-INITIATOR-CLIENT1|45=2|58=Unsupported Message Type|372=D|380=3|10=078|
8=FIX.4.4|9=82|35=0|34=3|49=MY-INITIATOR-CLIENT1|52=20200423-06:06:54.575|56=MY-ACCEPTOR-SERVICE|10=224|
8=FIX.4.4|9=82|35=0|34=3|49=MY-ACCEPTOR-SERVICE|52=20200423-06:06:54.576|56=MY-INITIATOR-CLIENT1|10=225|
8=FIX.4.4|9=180|35=D|34=4|49=MY-INITIATOR-CLIENT1|52=20200423-06:06:58.647|56=MY-ACCEPTOR-SERVICE|11=0.8412509088373528Client1|15=EUR|38=5000000|40=2|54=1|55=EUR/USD|59=0|60=20200423-11:36:58.647|10=157|
8=FIX.4.4|9=127|35=j|34=4|49=MY-ACCEPTOR-SERVICE|52=20200423-06:06:58.647|56=MY-INITIATOR-CLIENT1|45=4|58=Unsupported Message Type|372=D|380=3|10=079|
8=FIX.4.4|9=82|35=0|34=5|49=MY-INITIATOR-CLIENT1|52=20200423-06:07:04.572|56=MY-ACCEPTOR-SERVICE|10=219|
8=FIX.4.4|9=82|35=0|34=5|49=MY-ACCEPTOR-SERVICE|52=20200423-06:07:04.574|56=MY-INITIATOR-CLIENT1|10=221|
8=FIX.4.4|9=180|35=D|34=6|49=MY-INITIATOR-CLIENT1|52=20200423-06:07:08.650|56=MY-ACCEPTOR-SERVICE|11=0.8710152530652541Client1|15=EUR|38=5000000|40=2|54=1|55=EUR/USD|59=0|60=20200423-11:37:08.650|10=121|
8=FIX.4.4|9=127|35=j|34=6|49=MY-ACCEPTOR-SERVICE|52=20200423-06:07:08.652|56=MY-INITIATOR-CLIENT1|45=6|58=Unsupported Message Type|372=D|380=3|10=075|
8=FIX.4.4|9=82|35=0|34=7|49=MY-INITIATOR-CLIENT1|52=20200423-06:07:14.572|56=MY-ACCEPTOR-SERVICE|10=222|
8=FIX.4.4|9=82|35=0|34=7|49=MY-ACCEPTOR-SERVICE|52=20200423-06:07:14.573|56=MY-INITIATOR-CLIENT1|10=223|
8=FIX.4.4|9=181|35=D|34=8|49=MY-INITIATOR-CLIENT1|52=20200423-06:07:18.665|56=MY-ACCEPTOR-SERVICE|11=0.21184351096573228Client1|15=EUR|38=5000000|40=2|54=1|55=EUR/USD|59=0|60=20200423-11:37:18.665|10=198|
8=FIX.4.4|9=127|35=j|34=8|49=MY-ACCEPTOR-SERVICE|52=20200423-06:07:18.667|56=MY-INITIATOR-CLIENT1|45=8|58=Unsupported Message Type|372=D|380=3|10=086|
8=FIX.4.4|9=82|35=0|34=9|49=MY-INITIATOR-CLIENT1|52=20200423-06:07:24.572|56=MY-ACCEPTOR-SERVICE|10=225|
8=FIX.4.4|9=82|35=0|34=9|49=MY-ACCEPTOR-SERVICE|52=20200423-06:07:24.573|56=MY-INITIATOR-CLIENT1|10=226|
8=FIX.4.4|9=181|35=D|34=10|49=MY-INITIATOR-CLIENT1|52=20200423-06:07:28.680|56=MY-ACCEPTOR-SERVICE|11=0.2770666426154694Client1|15=EUR|38=5000000|40=2|54=1|55=EUR/USD|59=0|60=20200423-11:37:28.680|10=195|
8=FIX.4.4|9=129|35=j|34=10|49=MY-ACCEPTOR-SERVICE|52=20200423-06:07:28.682|56=MY-INITIATOR-CLIENT1|45=10|58=Unsupported Message Type|372=D|380=3|10=168|
8=FIX.4.4|9=95|35=A|34=1|49=MY-INITIATOR-CLIENT1|52=20200423-06:11:25.127|56=MY-ACCEPTOR-SERVICE|108=30|141=Y|10=077|
8=FIX.4.4|9=140|35=5|34=11|49=MY-ACCEPTOR-SERVICE|52=20200423-06:11:25.166|56=MY-INITIATOR-CLIENT1|58=Invalid Logon message: Required tag missing, field=98|10=218|
8=FIX.4.4|9=99|35=A|34=1|49=MY-INITIATOR-CLIENT1|52=20200423-06:11:31.130|56=MY-ACCEPTOR-SERVICE|98=0|108=5|141=Y|10=249|
8=FIX.4.4|9=99|35=A|34=1|49=MY-ACCEPTOR-SERVICE|52=20200423-06:11:31.147|56=MY-INITIATOR-CLIENT1|98=0|108=5|141=Y|10=001|
8=FIX.4.4|9=180|35=D|34=2|49=MY-INITIATOR-CLIENT1|52=20200423-06:11:35.173|56=MY-ACCEPTOR-SERVICE|11=0.4398933387443761Client1|15=EUR|38=5000000|40=2|54=1|55=EUR/USD|59=0|60=20200423-11:36:48.644|10=145|
8=FIX.4.4|9=127|35=j|34=2|49=MY-ACCEPTOR-SERVICE|52=20200423-06:11:35.195|56=MY-INITIATOR-CLIENT1|45=2|58=Unsupported Message Type|372=D|380=3|10=064|
8=FIX.4.4|9=82|35=0|34=3|49=MY-ACCEPTOR-SERVICE|52=20200423-06:11:40.530|56=MY-INITIATOR-CLIENT1|10=206|
8=FIX.4.4|9=82|35=0|34=3|49=MY-INITIATOR-CLIENT1|52=20200423-06:11:40.530|56=MY-ACCEPTOR-SERVICE|10=206|
8=FIX.4.4|9=180|35=D|34=4|49=MY-INITIATOR-CLIENT1|52=20200423-06:11:45.184|56=MY-ACCEPTOR-SERVICE|11=0.4398933387443761Client1|15=EUR|38=5000000|40=2|54=1|55=EUR/USD|59=0|60=20200423-11:36:48.644|10=150|
8=FIX.4.4|9=127|35=j|34=4|49=MY-ACCEPTOR-SERVICE|52=20200423-06:11:45.185|56=MY-INITIATOR-CLIENT1|45=4|58=Unsupported Message Type|372=D|380=3|10=068|
8=FIX.4.4|9=82|35=0|34=5|49=MY-ACCEPTOR-SERVICE|52=20200423-06:11:50.525|56=MY-INITIATOR-CLIENT1|10=213|
8=FIX.4.4|9=82|35=0|34=5|49=MY-INITIATOR-CLIENT1|52=20200423-06:11:50.526|56=MY-ACCEPTOR-SERVICE|10=214|
8=FIX.4.4|9=180|35=D|34=6|49=MY-INITIATOR-CLIENT1|52=20200423-06:11:55.202|56=MY-ACCEPTOR-SERVICE|11=0.4398933387443761Client1|15=EUR|38=5000000|40=2|54=1|55=EUR/USD|59=0|60=20200423-11:36:48.644|10=144|
8=FIX.4.4|9=127|35=j|34=6|49=MY-ACCEPTOR-SERVICE|52=20200423-06:11:55.203|56=MY-INITIATOR-CLIENT1|45=6|58=Unsupported Message Type|372=D|380=3|10=064|
8=FIX.4.4|9=82|35=0|34=7|49=MY-ACCEPTOR-SERVICE|52=20200423-06:12:00.526|56=MY-INITIATOR-CLIENT1|10=212|
8=FIX.4.4|9=82|35=0|34=7|49=MY-INITIATOR-CLIENT1|52=20200423-06:12:00.527|56=MY-ACCEPTOR-SERVICE|10=213|
8=FIX.4.4|9=180|35=D|34=8|49=MY-INITIATOR-CLIENT1|52=20200423-06:12:05.215|56=MY-ACCEPTOR-SERVICE|11=0.4398933387443761Client1|15=EUR|38=5000000|40=2|54=1|55=EUR/USD|59=0|60=20200423-11:36:48.644|10=146|
8=FIX.4.4|9=127|35=j|34=8|49=MY-ACCEPTOR-SERVICE|52=20200423-06:12:05.217|56=MY-INITIATOR-CLIENT1|45=8|58=Unsupported Message Type|372=D|380=3|10=069|
8=FIX.4.4|9=82|35=0|34=9|49=MY-ACCEPTOR-SERVICE|52=20200423-06:12:10.525|56=MY-INITIATOR-CLIENT1|10=214|
8=FIX.4.4|9=82|35=0|34=9|49=MY-INITIATOR-CLIENT1|52=20200423-06:12:10.527|56=MY-ACCEPTOR-SERVICE|10=216|
8=FIX.4.4|9=181|35=D|34=10|49=MY-INITIATOR-CLIENT1|52=20200423-06:12:15.230|56=MY-ACCEPTOR-SERVICE|11=0.4398933387443761Client1|15=EUR|38=5000000|40=2|54=1|55=EUR/USD|59=0|60=20200423-11:36:48.644|10=186|
8=FIX.4.4|9=129|35=j|34=10|49=MY-ACCEPTOR-SERVICE|52=20200423-06:12:15.233|56=MY-INITIATOR-CLIENT1|45=10|58=Unsupported Message Type|372=D|380=3|10=152|
8=FIX.4.4|9=95|35=A|34=1|49=MY-INITIATOR-CLIENT1|52=20200423-07:03:42.500|56=MY-ACCEPTOR-SERVICE|108=30|141=Y|10=073|
8=FIX.4.4|9=140|35=5|34=11|49=MY-ACCEPTOR-SERVICE|52=20200423-07:03:42.547|56=MY-INITIATOR-CLIENT1|58=Invalid Logon message: Required tag missing, field=98|10=222|
8=FIX.4.4|9=95|35=A|34=1|49=MY-INITIATOR-CLIENT1|52=20200423-07:05:08.365|56=MY-ACCEPTOR-SERVICE|108=30|141=Y|10=086|
8=FIX.4.4|9=140|35=5|34=12|49=MY-ACCEPTOR-SERVICE|52=20200423-07:05:08.419|56=MY-INITIATOR-CLIENT1|58=Invalid Logon message: Required tag missing, field=98|10=225|
8=FIX.4.4|9=99|35=A|34=1|49=MY-INITIATOR-CLIENT1|52=20200423-07:05:14.365|56=MY-ACCEPTOR-SERVICE|98=0|108=5|141=Y|10=008|
8=FIX.4.4|9=99|35=A|34=1|49=MY-ACCEPTOR-SERVICE|52=20200423-07:05:14.389|56=MY-INITIATOR-CLIENT1|98=0|108=5|141=Y|10=014|
8=FIX.4.4|9=180|35=D|34=2|49=MY-INITIATOR-CLIENT1|52=20200423-07:05:18.502|56=MY-ACCEPTOR-SERVICE|11=0.4398933387443761Client1|15=EUR|38=5000000|40=2|54=1|55=EUR/USD|59=0|60=20200423-11:36:48.644|10=146|
8=FIX.4.4|9=127|35=j|34=2|49=MY-ACCEPTOR-SERVICE|52=20200423-07:05:18.533|56=MY-INITIATOR-CLIENT1|45=2|58=Unsupported Message Type|372=D|380=3|10=065|
8=FIX.4.4|9=82|35=0|34=3|49=MY-ACCEPTOR-SERVICE|52=20200423-07:05:23.729|56=MY-INITIATOR-CLIENT1|10=221|
8=FIX.4.4|9=82|35=0|34=3|49=MY-INITIATOR-CLIENT1|52=20200423-07:05:23.731|56=MY-ACCEPTOR-SERVICE|10=214|
8=FIX.4.4|9=180|35=D|34=4|49=MY-INITIATOR-CLIENT1|52=20200423-07:05:28.505|56=MY-ACCEPTOR-SERVICE|11=0.4398933387443761Client1|15=EUR|38=5000000|40=2|54=1|55=EUR/USD|59=0|60=20200423-11:36:48.644|10=152|
8=FIX.4.4|9=127|35=j|34=4|49=MY-ACCEPTOR-SERVICE|52=20200423-07:05:28.506|56=MY-INITIATOR-CLIENT1|45=4|58=Unsupported Message Type|372=D|380=3|10=070|
8=FIX.4.4|9=82|35=0|34=5|49=MY-ACCEPTOR-SERVICE|52=20200423-07:05:33.728|56=MY-INITIATOR-CLIENT1|10=223|
8=FIX.4.4|9=82|35=0|34=5|49=MY-INITIATOR-CLIENT1|52=20200423-07:05:33.729|56=MY-ACCEPTOR-SERVICE|10=224|
8=FIX.4.4|9=180|35=D|34=6|49=MY-INITIATOR-CLIENT1|52=20200423-07:05:38.510|56=MY-ACCEPTOR-SERVICE|11=0.4398933387443761Client1|15=EUR|38=5000000|40=2|54=1|55=EUR/USD|59=0|60=20200423-11:36:48.644|10=151|
8=FIX.4.4|9=127|35=j|34=6|49=MY-ACCEPTOR-SERVICE|52=20200423-07:05:38.511|56=MY-INITIATOR-CLIENT1|45=6|58=Unsupported Message Type|372=D|380=3|10=071|
8=FIX.4.4|9=82|35=0|34=7|49=MY-ACCEPTOR-SERVICE|52=20200423-07:05:43.727|56=MY-INITIATOR-CLIENT1|10=225|
8=FIX.4.4|9=82|35=0|34=7|49=MY-INITIATOR-CLIENT1|52=20200423-07:05:43.727|56=MY-ACCEPTOR-SERVICE|10=225|
8=FIX.4.4|9=95|35=A|34=1|49=MY-INITIATOR-CLIENT1|52=20200423-07:06:19.076|56=MY-ACCEPTOR-SERVICE|108=30|141=Y|10=088|
8=FIX.4.4|9=139|35=5|34=8|49=MY-ACCEPTOR-SERVICE|52=20200423-07:06:19.107|56=MY-INITIATOR-CLIENT1|58=Invalid Logon message: Required tag missing, field=98|10=187|
8=FIX.4.4|9=95|35=A|34=1|49=MY-INITIATOR-CLIENT1|52=20200423-07:06:36.991|56=MY-ACCEPTOR-SERVICE|108=30|141=Y|10=093|
8=FIX.4.4|9=139|35=5|34=9|49=MY-ACCEPTOR-SERVICE|52=20200423-07:06:37.009|56=MY-INITIATOR-CLIENT1|58=Invalid Logon message: Required tag missing, field=98|10=189|
8=FIX.4.4|9=95|35=A|34=1|49=MY-INITIATOR-CLIENT1|52=20200423-07:07:02.140|56=MY-ACCEPTOR-SERVICE|108=30|141=Y|10=073|
8=FIX.4.4|9=140|35=5|34=10|49=MY-ACCEPTOR-SERVICE|52=20200423-07:07:02.158|56=MY-INITIATOR-CLIENT1|58=Invalid Logon message: Required tag missing, field=98|10=219|
8=FIX.4.4|9=99|35=A|34=1|49=MY-INITIATOR-CLIENT1|52=20200423-07:07:08.136|56=MY-ACCEPTOR-SERVICE|98=0|108=5|141=Y|10=009|
8=FIX.4.4|9=99|35=A|34=1|49=MY-ACCEPTOR-SERVICE|52=20200423-07:07:08.167|56=MY-INITIATOR-CLIENT1|98=0|108=5|141=Y|10=013|
8=FIX.4.4|9=180|35=D|34=2|49=MY-INITIATOR-CLIENT1|52=20200423-07:07:12.263|56=MY-ACCEPTOR-SERVICE|11=0.4398933387443761Client1|15=EUR|38=5000000|40=2|54=1|55=EUR/USD|59=0|60=20200423-11:36:48.644|10=146|
8=FIX.4.4|9=127|35=j|34=2|49=MY-ACCEPTOR-SERVICE|52=20200423-07:07:12.264|56=MY-INITIATOR-CLIENT1|45=2|58=Unsupported Message Type|372=D|380=3|10=062|
8=FIX.4.4|9=82|35=0|34=3|49=MY-ACCEPTOR-SERVICE|52=20200423-07:07:17.727|56=MY-INITIATOR-CLIENT1|10=224|
8=FIX.4.4|9=82|35=0|34=3|49=MY-INITIATOR-CLIENT1|52=20200423-07:07:17.730|56=MY-ACCEPTOR-SERVICE|10=218|
8=FIX.4.4|9=180|35=D|34=4|49=MY-INITIATOR-CLIENT1|52=20200423-07:07:22.277|56=MY-ACCEPTOR-SERVICE|11=0.4398933387443761Client1|15=EUR|38=5000000|40=2|54=1|55=EUR/USD|59=0|60=20200423-11:36:48.644|10=154|
8=FIX.4.4|9=127|35=j|34=4|49=MY-ACCEPTOR-SERVICE|52=20200423-07:07:22.279|56=MY-INITIATOR-CLIENT1|45=4|58=Unsupported Message Type|372=D|380=3|10=073|
8=FIX.4.4|9=82|35=0|34=5|49=MY-ACCEPTOR-SERVICE|52=20200423-07:07:27.727|56=MY-INITIATOR-CLIENT1|10=227|
8=FIX.4.4|9=82|35=0|34=5|49=MY-INITIATOR-CLIENT1|52=20200423-07:07:27.728|56=MY-ACCEPTOR-SERVICE|10=228|
8=FIX.4.4|9=180|35=D|34=6|49=MY-INITIATOR-CLIENT1|52=20200423-07:07:32.292|56=MY-ACCEPTOR-SERVICE|11=0.4398933387443761Client1|15=EUR|38=5000000|40=2|54=1|55=EUR/USD|59=0|60=20200423-11:36:48.644|10=154|
8=FIX.4.4|9=127|35=j|34=6|49=MY-ACCEPTOR-SERVICE|52=20200423-07:07:32.294|56=MY-INITIATOR-CLIENT1|45=6|58=Unsupported Message Type|372=D|380=3|10=075|
8=FIX.4.4|9=82|35=0|34=7|49=MY-ACCEPTOR-SERVICE|52=20200423-07:07:37.727|56=MY-INITIATOR-CLIENT1|10=230|
8=FIX.4.4|9=82|35=0|34=7|49=MY-INITIATOR-CLIENT1|52=20200423-07:07:37.728|56=MY-ACCEPTOR-SERVICE|10=231|
8=FIX.4.4|9=95|35=A|34=1|49=MY-INITIATOR-CLIENT1|52=20200423-07:11:37.166|56=MY-ACCEPTOR-SERVICE|108=30|141=Y|10=084|
8=FIX.4.4|9=139|35=5|34=8|49=MY-ACCEPTOR-SERVICE|52=20200423-07:11:37.213|56=MY-INITIATOR-CLIENT1|58=Invalid Logon message: Required tag missing, field=98|10=181|
8=FIX.4.4|9=99|35=A|34=1|49=MY-INITIATOR-CLIENT1|52=20200423-07:11:43.162|56=MY-ACCEPTOR-SERVICE|98=0|108=5|141=Y|10=002|
8=FIX.4.4|9=99|35=A|34=1|49=MY-ACCEPTOR-SERVICE|52=20200423-07:11:43.172|56=MY-INITIATOR-CLIENT1|98=0|108=5|141=Y|10=003|
8=FIX.4.4|9=180|35=D|34=2|49=MY-INITIATOR-CLIENT1|52=20200423-07:11:47.255|56=MY-ACCEPTOR-SERVICE|11=0.4398933387443761Client1|15=EUR|38=5000000|40=2|54=1|55=EUR/USD|59=0|60=20200423-11:36:48.644|10=150|
8=FIX.4.4|9=180|35=D|34=3|49=MY-INITIATOR-CLIENT1|52=20200423-07:11:47.256|56=MY-ACCEPTOR-SERVICE|11=0.4398933387443761Client1|15=EUR|38=5000000|40=2|54=1|55=EUR/USD|59=0|60=20200423-11:36:48.644|10=152|
8=FIX.4.4|9=180|35=D|34=4|49=MY-INITIATOR-CLIENT1|52=20200423-07:11:47.259|56=MY-ACCEPTOR-SERVICE|11=0.4398933387443761Client1|15=EUR|38=5000000|40=2|54=1|55=EUR/USD|59=0|60=20200423-11:36:48.644|10=156|
8=FIX.4.4|9=180|35=D|34=5|49=MY-INITIATOR-CLIENT1|52=20200423-07:11:47.259|56=MY-ACCEPTOR-SERVICE|11=0.4398933387443761Client1|15=EUR|38=5000000|40=2|54=1|55=EUR/USD|59=0|60=20200423-11:36:48.644|10=157|
8=FIX.4.4|9=127|35=j|34=2|49=MY-ACCEPTOR-SERVICE|52=20200423-07:11:47.298|56=MY-INITIATOR-CLIENT1|45=2|58=Unsupported Message Type|372=D|380=3|10=072|
8=FIX.4.4|9=127|35=j|34=3|49=MY-ACCEPTOR-SERVICE|52=20200423-07:11:47.299|56=MY-INITIATOR-CLIENT1|45=3|58=Unsupported Message Type|372=D|380=3|10=075|
8=FIX.4.4|9=127|35=j|34=4|49=MY-ACCEPTOR-SERVICE|52=20200423-07:11:47.300|56=MY-INITIATOR-CLIENT1|45=4|58=Unsupported Message Type|372=D|380=3|10=060|
8=FIX.4.4|9=127|35=j|34=5|49=MY-ACCEPTOR-SERVICE|52=20200423-07:11:47.301|56=MY-INITIATOR-CLIENT1|45=5|58=Unsupported Message Type|372=D|380=3|10=063|
8=FIX.4.4|9=95|35=A|34=1|49=MY-INITIATOR-CLIENT1|52=20200423-07:27:36.872|56=MY-ACCEPTOR-SERVICE|108=30|141=Y|10=094|
8=FIX.4.4|9=139|35=5|34=6|49=MY-ACCEPTOR-SERVICE|52=20200423-07:27:36.919|56=MY-INITIATOR-CLIENT1|58=Invalid Logon message: Required tag missing, field=98|10=198|
8=FIX.4.4|9=99|35=A|34=1|49=MY-INITIATOR-CLIENT1|52=20200423-07:27:42.908|56=MY-ACCEPTOR-SERVICE|98=0|108=5|141=Y|10=016|
8=FIX.4.4|9=99|35=A|34=1|49=MY-ACCEPTOR-SERVICE|52=20200423-07:27:42.941|56=MY-INITIATOR-CLIENT1|98=0|108=5|141=Y|10=013|
8=FIX.4.4|9=180|35=D|34=2|49=MY-INITIATOR-CLIENT1|52=20200423-07:27:42.987|56=MY-ACCEPTOR-SERVICE|11=0.4398933387443761Client1|15=EUR|38=5000000|40=2|54=1|55=EUR/USD|59=0|60=20200423-11:36:48.644|10=164|
8=FIX.4.4|9=180|35=D|34=3|49=MY-INITIATOR-CLIENT1|52=20200423-07:27:42.987|56=MY-ACCEPTOR-SERVICE|11=0.4398933387443761Client1|15=EUR|38=5000000|40=2|54=1|55=EUR/USD|59=0|60=20200423-11:36:48.644|10=165|
8=FIX.4.4|9=180|35=D|34=4|49=MY-INITIATOR-CLIENT1|52=20200423-07:27:42.987|56=MY-ACCEPTOR-SERVICE|11=0.4398933387443761Client1|15=EUR|38=5000000|40=2|54=1|55=EUR/USD|59=0|60=20200423-11:36:48.644|10=166|
8=FIX.4.4|9=180|35=D|34=5|49=MY-INITIATOR-CLIENT1|52=20200423-07:27:42.987|56=MY-ACCEPTOR-SERVICE|11=0.4398933387443761Client1|15=EUR|38=5000000|40=2|54=1|55=EUR/USD|59=0|60=20200423-11:36:48.644|10=167|
8=FIX.4.4|9=127|35=j|34=2|49=MY-ACCEPTOR-SERVICE|52=20200423-07:27:43.056|56=MY-INITIATOR-CLIENT1|45=2|58=Unsupported Message Type|372=D|380=3|10=067|
8=FIX.4.4|9=127|35=j|34=3|49=MY-ACCEPTOR-SERVICE|52=20200423-07:27:43.056|56=MY-INITIATOR-CLIENT1|45=3|58=Unsupported Message Type|372=D|380=3|10=069|
8=FIX.4.4|9=127|35=j|34=4|49=MY-ACCEPTOR-SERVICE|52=20200423-07:27:43.056|56=MY-INITIATOR-CLIENT1|45=4|58=Unsupported Message Type|372=D|380=3|10=071|
8=FIX.4.4|9=127|35=j|34=5|49=MY-ACCEPTOR-SERVICE|52=20200423-07:27:43.056|56=MY-INITIATOR-CLIENT1|45=5|58=Unsupported Message Type|372=D|380=3|10=073|
8=FIX.4.4|9=95|35=A|34=1|49=MY-INITIATOR-CLIENT1|52=20200423-07:47:06.826|56=MY-ACCEPTOR-SERVICE|108=30|141=Y|10=092|
8=FIX.4.4|9=139|35=5|34=6|49=MY-ACCEPTOR-SERVICE|52=20200423-07:47:06.859|56=MY-INITIATOR-CLIENT1|58=Invalid Logon message: Required tag missing, field=98|10=200|
8=FIX.4.4|9=99|35=A|34=1|49=MY-INITIATOR-CLIENT1|52=20200423-07:47:12.819|56=MY-ACCEPTOR-SERVICE|98=0|108=5|141=Y|10=016|
8=FIX.4.4|9=99|35=A|34=1|49=MY-ACCEPTOR-SERVICE|52=20200423-07:47:12.844|56=MY-INITIATOR-CLIENT1|98=0|108=5|141=Y|10=014|
8=FIX.4.4|9=95|35=A|34=1|49=MY-INITIATOR-CLIENT1|52=20200423-07:47:28.858|56=MY-ACCEPTOR-SERVICE|108=30|141=Y|10=101|
8=FIX.4.4|9=139|35=5|34=2|49=MY-ACCEPTOR-SERVICE|52=20200423-07:47:28.874|56=MY-INITIATOR-CLIENT1|58=Invalid Logon message: Required tag missing, field=98|10=197|
8=FIX.4.4|9=99|35=A|34=1|49=MY-INITIATOR-CLIENT1|52=20200423-07:47:34.857|56=MY-ACCEPTOR-SERVICE|98=0|108=5|141=Y|10=022|
8=FIX.4.4|9=99|35=A|34=1|49=MY-ACCEPTOR-SERVICE|52=20200423-07:47:34.877|56=MY-INITIATOR-CLIENT1|98=0|108=5|141=Y|10=024|
8=FIX.4.4|9=82|35=0|34=2|49=MY-ACCEPTOR-SERVICE|52=20200423-07:47:40.076|56=MY-INITIATOR-CLIENT1|10=220|
8=FIX.4.4|9=82|35=0|34=2|49=MY-INITIATOR-CLIENT1|52=20200423-07:47:40.078|56=MY-ACCEPTOR-SERVICE|10=222|
8=FIX.4.4|9=82|35=0|34=3|49=MY-ACCEPTOR-SERVICE|52=20200423-07:47:45.073|56=MY-INITIATOR-CLIENT1|10=223|
8=FIX.4.4|9=82|35=0|34=3|49=MY-INITIATOR-CLIENT1|52=20200423-07:47:45.075|56=MY-ACCEPTOR-SERVICE|10=225|
8=FIX.4.4|9=82|35=0|34=4|49=MY-INITIATOR-CLIENT1|52=20200423-07:47:50.847|56=MY-ACCEPTOR-SERVICE|10=229|
8=FIX.4.4|9=82|35=0|34=4|49=MY-ACCEPTOR-SERVICE|52=20200423-07:47:50.849|56=MY-INITIATOR-CLIENT1|10=231|
8=FIX.4.4|9=82|35=0|34=5|49=MY-INITIATOR-CLIENT1|52=20200423-07:47:55.844|56=MY-ACCEPTOR-SERVICE|10=232|
8=FIX.4.4|9=82|35=0|34=5|49=MY-ACCEPTOR-SERVICE|52=20200423-07:47:55.845|56=MY-INITIATOR-CLIENT1|10=233|
8=FIX.4.4|9=95|35=A|34=1|49=MY-INITIATOR-CLIENT1|52=20200423-08:50:18.400|56=MY-ACCEPTOR-SERVICE|108=30|141=Y|10=078|
8=FIX.4.4|9=139|35=5|34=6|49=MY-ACCEPTOR-SERVICE|52=20200423-08:50:18.415|56=MY-INITIATOR-CLIENT1|58=Invalid Logon message: Required tag missing, field=98|10=186|
8=FIX.4.4|9=95|35=A|34=1|49=MY-INITIATOR-CLIENT1|52=20200423-08:51:06.784|56=MY-ACCEPTOR-SERVICE|108=30|141=Y|10=091|
8=FIX.4.4|9=139|35=5|34=7|49=MY-ACCEPTOR-SERVICE|52=20200423-08:51:06.799|56=MY-INITIATOR-CLIENT1|58=Invalid Logon message: Required tag missing, field=98|10=200|
8=FIX.4.4|9=95|35=A|34=1|49=MY-INITIATOR-CLIENT1|52=20200423-08:51:54.056|56=MY-ACCEPTOR-SERVICE|108=30|141=Y|10=086|
8=FIX.4.4|9=139|35=5|34=8|49=MY-ACCEPTOR-SERVICE|52=20200423-08:51:54.070|56=MY-INITIATOR-CLIENT1|58=Invalid Logon message: Required tag missing, field=98|10=186|
8=FIX.4.4|9=99|35=A|34=1|49=MY-INITIATOR-CLIENT1|52=20200423-08:52:10.729|56=MY-ACCEPTOR-SERVICE|98=0|108=5|141=Y|10=011|
8=FIX.4.4|9=99|35=A|34=1|49=MY-ACCEPTOR-SERVICE|52=20200423-08:52:10.859|56=MY-INITIATOR-CLIENT1|98=0|108=5|141=Y|10=015|
8=FIX.4.4|9=82|35=0|34=2|49=MY-ACCEPTOR-SERVICE|52=20200423-08:52:16.076|56=MY-INITIATOR-CLIENT1|10=220|
8=FIX.4.4|9=91|35=1|34=3|49=MY-ACCEPTOR-SERVICE|52=20200423-08:52:19.061|56=MY-INITIATOR-CLIENT1|112=TEST|10=237|
8=FIX.4.4|9=99|35=A|34=1|49=MY-INITIATOR-CLIENT1|52=20200423-08:52:44.055|56=MY-ACCEPTOR-SERVICE|98=0|108=5|141=Y|10=010|
8=FIX.4.4|9=99|35=A|34=1|49=MY-ACCEPTOR-SERVICE|52=20200423-08:52:44.088|56=MY-INITIATOR-CLIENT1|98=0|108=5|141=Y|10=016|
8=FIX.4.4|9=82|35=0|34=2|49=MY-INITIATOR-CLIENT1|52=20200423-08:52:50.045|56=MY-ACCEPTOR-SERVICE|10=214|
8=FIX.4.4|9=82|35=0|34=2|49=MY-ACCEPTOR-SERVICE|52=20200423-08:52:50.046|56=MY-INITIATOR-CLIENT1|10=215|
8=FIX.4.4|9=82|35=0|34=3|49=MY-INITIATOR-CLIENT1|52=20200423-08:52:55.044|56=MY-ACCEPTOR-SERVICE|10=219|
8=FIX.4.4|9=82|35=0|34=3|49=MY-ACCEPTOR-SERVICE|52=20200423-08:52:55.045|56=MY-INITIATOR-CLIENT1|10=220|
8=FIX.4.4|9=82|35=0|34=4|49=MY-INITIATOR-CLIENT1|52=20200423-08:53:00.044|56=MY-ACCEPTOR-SERVICE|10=211|
8=FIX.4.4|9=82|35=0|34=4|49=MY-ACCEPTOR-SERVICE|52=20200423-08:53:00.045|56=MY-INITIATOR-CLIENT1|10=212|
8=FIX.4.4|9=95|35=A|34=1|49=MY-INITIATOR-CLIENT1|52=20200423-08:53:54.021|56=MY-ACCEPTOR-SERVICE|108=30|141=Y|10=080|
8=FIX.4.4|9=139|35=5|34=5|49=MY-ACCEPTOR-SERVICE|52=20200423-08:53:54.052|56=MY-INITIATOR-CLIENT1|58=Invalid Logon message: Required tag missing, field=98|10=185|
8=FIX.4.4|9=99|35=A|34=1|49=MY-INITIATOR-CLIENT1|52=20200423-08:54:03.279|56=MY-ACCEPTOR-SERVICE|98=0|108=5|141=Y|10=015|
8=FIX.4.4|9=99|35=A|34=1|49=MY-ACCEPTOR-SERVICE|52=20200423-08:54:03.361|56=MY-INITIATOR-CLIENT1|98=0|108=5|141=Y|10=007|
8=FIX.4.4|9=95|35=A|34=1|49=MY-INITIATOR-CLIENT1|52=20200423-08:56:27.240|56=MY-ACCEPTOR-SERVICE|108=30|141=Y|10=086|
8=FIX.4.4|9=139|35=5|34=2|49=MY-ACCEPTOR-SERVICE|52=20200423-08:56:27.254|56=MY-INITIATOR-CLIENT1|58=Invalid Logon message: Required tag missing, field=98|10=189|
8=FIX.4.4|9=99|35=A|34=1|49=MY-INITIATOR-CLIENT1|52=20200423-08:56:39.171|56=MY-ACCEPTOR-SERVICE|98=0|108=5|141=Y|10=017|
8=FIX.4.4|9=99|35=A|34=1|49=MY-ACCEPTOR-SERVICE|52=20200423-08:56:39.252|56=MY-INITIATOR-CLIENT1|98=0|108=5|141=Y|10=017|
8=FIX.4.4|9=82|35=0|34=2|49=MY-ACCEPTOR-SERVICE|52=20200423-08:56:45.075|56=MY-INITIATOR-CLIENT1|10=225|
8=FIX.4.4|9=91|35=1|34=3|49=MY-ACCEPTOR-SERVICE|52=20200423-08:56:47.062|56=MY-INITIATOR-CLIENT1|112=TEST|10=243|
8=FIX.4.4|9=95|35=A|34=1|49=MY-INITIATOR-CLIENT1|52=20200423-08:57:19.123|56=MY-ACCEPTOR-SERVICE|108=30|141=Y|10=088|
8=FIX.4.4|9=139|35=5|34=4|49=MY-ACCEPTOR-SERVICE|52=20200423-08:57:19.138|56=MY-INITIATOR-CLIENT1|58=Invalid Logon message: Required tag missing, field=98|10=194|
8=FIX.4.4|9=99|35=A|34=1|49=MY-INITIATOR-CLIENT1|52=20200423-08:57:25.117|56=MY-ACCEPTOR-SERVICE|98=0|108=5|141=Y|10=013|
8=FIX.4.4|9=99|35=A|34=1|49=MY-ACCEPTOR-SERVICE|52=20200423-08:57:25.149|56=MY-INITIATOR-CLIENT1|98=0|108=5|141=Y|10=018|
8=FIX.4.4|9=82|35=0|34=2|49=MY-ACCEPTOR-SERVICE|52=20200423-08:57:31.075|56=MY-INITIATOR-CLIENT1|10=221|
8=FIX.4.4|9=82|35=0|34=2|49=MY-INITIATOR-CLIENT1|52=20200423-08:57:31.078|56=MY-ACCEPTOR-SERVICE|10=224|
8=FIX.4.4|9=82|35=0|34=3|49=MY-INITIATOR-CLIENT1|52=20200423-08:57:36.108|56=MY-ACCEPTOR-SERVICE|10=224|
8=FIX.4.4|9=82|35=0|34=3|49=MY-ACCEPTOR-SERVICE|52=20200423-08:57:36.109|56=MY-INITIATOR-CLIENT1|10=225|
8=FIX.4.4|9=82|35=0|34=4|49=MY-INITIATOR-CLIENT1|52=20200423-08:57:41.107|56=MY-ACCEPTOR-SERVICE|10=220|
8=FIX.4.4|9=82|35=0|34=4|49=MY-ACCEPTOR-SERVICE|52=20200423-08:57:41.108|56=MY-INITIATOR-CLIENT1|10=221|
8=FIX.4.4|9=95|35=A|34=1|49=MY-INITIATOR-CLIENT1|52=20200423-08:59:12.938|56=MY-ACCEPTOR-SERVICE|108=30|141=Y|10=097|
8=FIX.4.4|9=139|35=5|34=5|49=MY-ACCEPTOR-SERVICE|52=20200423-08:59:12.957|56=MY-INITIATOR-CLIENT1|58=Invalid Logon message: Required tag missing, field=98|10=199|
8=FIX.4.4|9=99|35=A|34=1|49=MY-INITIATOR-CLIENT1|52=20200423-08:59:18.933|56=MY-ACCEPTOR-SERVICE|98=0|108=5|141=Y|10=023|
8=FIX.4.4|9=99|35=A|34=1|49=MY-ACCEPTOR-SERVICE|52=20200423-08:59:18.958|56=MY-INITIATOR-CLIENT1|98=0|108=5|141=Y|10=030|
8=FIX.4.4|9=82|35=0|34=2|49=MY-ACCEPTOR-SERVICE|52=20200423-08:59:24.075|56=MY-INITIATOR-CLIENT1|10=225|
8=FIX.4.4|9=82|35=0|34=2|49=MY-INITIATOR-CLIENT1|52=20200423-08:59:24.077|56=MY-ACCEPTOR-SERVICE|10=227|
8=FIX.4.4|9=82|35=0|34=3|49=MY-INITIATOR-CLIENT1|52=20200423-08:59:29.922|56=MY-ACCEPTOR-SERVICE|10=232|
8=FIX.4.4|9=82|35=0|34=3|49=MY-ACCEPTOR-SERVICE|52=20200423-08:59:29.923|56=MY-INITIATOR-CLIENT1|10=233|
8=FIX.4.4|9=82|35=0|34=4|49=MY-INITIATOR-CLIENT1|52=20200423-08:59:34.919|56=MY-ACCEPTOR-SERVICE|10=235|
8=FIX.4.4|9=82|35=0|34=4|49=MY-ACCEPTOR-SERVICE|52=20200423-08:59:34.920|56=MY-INITIATOR-CLIENT1|10=227|
8=FIX.4.4|9=82|35=0|34=5|49=MY-INITIATOR-CLIENT1|52=20200423-08:59:39.921|56=MY-ACCEPTOR-SERVICE|10=234|
8=FIX.4.4|9=82|35=0|34=5|49=MY-ACCEPTOR-SERVICE|52=20200423-08:59:39.922|56=MY-INITIATOR-CLIENT1|10=235|
8=FIX.4.4|9=95|35=A|34=1|49=MY-INITIATOR-CLIENT1|52=20200423-09:07:15.921|56=MY-ACCEPTOR-SERVICE|108=30|141=Y|10=086|
8=FIX.4.4|9=139|35=5|34=6|49=MY-ACCEPTOR-SERVICE|52=20200423-09:07:15.952|56=MY-INITIATOR-CLIENT1|58=Invalid Logon message: Required tag missing, field=98|10=192|
8=FIX.4.4|9=99|35=A|34=1|49=MY-INITIATOR-CLIENT1|52=20200423-09:07:21.887|56=MY-ACCEPTOR-SERVICE|98=0|108=5|141=Y|10=019|
8=FIX.4.4|9=99|35=A|34=1|49=MY-ACCEPTOR-SERVICE|52=20200423-09:07:21.949|56=MY-INITIATOR-CLIENT1|98=0|108=5|141=Y|10=018|
8=FIX.4.4|9=82|35=0|34=2|49=MY-INITIATOR-CLIENT1|52=20200423-09:07:26.888|56=MY-ACCEPTOR-SERVICE|10=233|
8=FIX.4.4|9=82|35=0|34=2|49=MY-ACCEPTOR-SERVICE|52=20200423-09:07:27.074|56=MY-INITIATOR-CLIENT1|10=221|
8=FIX.4.4|9=95|35=A|34=1|49=MY-INITIATOR-CLIENT1|52=20200423-09:08:09.674|56=MY-ACCEPTOR-SERVICE|108=30|141=Y|10=095|
8=FIX.4.4|9=139|35=5|34=3|49=MY-ACCEPTOR-SERVICE|52=20200423-09:08:09.686|56=MY-INITIATOR-CLIENT1|58=Invalid Logon message: Required tag missing, field=98|10=197|
8=FIX.4.4|9=99|35=A|34=1|49=MY-INITIATOR-CLIENT1|52=20200423-09:08:15.620|56=MY-ACCEPTOR-SERVICE|98=0|108=5|141=Y|10=008|
8=FIX.4.4|9=99|35=A|34=1|49=MY-ACCEPTOR-SERVICE|52=20200423-09:08:15.701|56=MY-INITIATOR-CLIENT1|98=0|108=5|141=Y|10=008|
8=FIX.4.4|9=95|35=A|34=1|49=MY-INITIATOR-CLIENT1|52=20200423-09:12:10.478|56=MY-ACCEPTOR-SERVICE|108=30|141=Y|10=084|
8=FIX.4.4|9=139|35=5|34=2|49=MY-ACCEPTOR-SERVICE|52=20200423-09:12:10.503|56=MY-INITIATOR-CLIENT1|58=Invalid Logon message: Required tag missing, field=98|10=171|
8=FIX.4.4|9=99|35=A|34=1|49=MY-INITIATOR-CLIENT1|52=20200423-09:12:16.426|56=MY-ACCEPTOR-SERVICE|98=0|108=5|141=Y|10=008|
8=FIX.4.4|9=99|35=A|34=1|49=MY-ACCEPTOR-SERVICE|52=20200423-09:12:16.507|56=MY-INITIATOR-CLIENT1|98=0|108=5|141=Y|10=008|
8=FIX.4.4|9=82|35=0|34=2|49=MY-ACCEPTOR-SERVICE|52=20200423-09:12:22.074|56=MY-INITIATOR-CLIENT1|10=212|
8=FIX.4.4|9=82|35=0|34=2|49=MY-INITIATOR-CLIENT1|52=20200423-09:12:22.074|56=MY-ACCEPTOR-SERVICE|10=212|
8=FIX.4.4|9=95|35=A|34=1|49=MY-INITIATOR-CLIENT1|52=20200423-09:13:52.527|56=MY-ACCEPTOR-SERVICE|108=30|141=Y|10=086|
8=FIX.4.4|9=139|35=5|34=3|49=MY-ACCEPTOR-SERVICE|52=20200423-09:13:52.543|56=MY-INITIATOR-CLIENT1|58=Invalid Logon message: Required tag missing, field=98|10=183|
8=FIX.4.4|9=99|35=A|34=1|49=MY-INITIATOR-CLIENT1|52=20200423-09:13:58.506|56=MY-ACCEPTOR-SERVICE|98=0|108=5|141=Y|10=014|
8=FIX.4.4|9=99|35=A|34=1|49=MY-ACCEPTOR-SERVICE|52=20200423-09:13:58.604|56=MY-INITIATOR-CLIENT1|98=0|108=5|141=Y|10=013|
8=FIX.4.4|9=95|35=A|34=1|49=MY-INITIATOR-CLIENT1|52=20200423-09:29:49.519|56=MY-ACCEPTOR-SERVICE|108=30|141=Y|10=100|
8=FIX.4.4|9=139|35=5|34=2|49=MY-ACCEPTOR-SERVICE|52=20200423-09:29:49.535|56=MY-INITIATOR-CLIENT1|58=Invalid Logon message: Required tag missing, field=98|10=196|
8=FIX.4.4|9=95|35=A|34=1|49=MY-INITIATOR-CLIENT1|52=20200423-09:30:34.149|56=MY-ACCEPTOR-SERVICE|108=30|141=Y|10=085|
8=FIX.4.4|9=139|35=5|34=3|49=MY-ACCEPTOR-SERVICE|52=20200423-09:30:34.181|56=MY-INITIATOR-CLIENT1|58=Invalid Logon message: Required tag missing, field=98|10=180|
8=FIX.4.4|9=99|35=A|34=1|49=MY-INITIATOR-CLIENT1|52=20200423-09:30:40.164|56=MY-ACCEPTOR-SERVICE|98=0|108=5|141=Y|10=004|
8=FIX.4.4|9=99|35=A|34=1|49=MY-ACCEPTOR-SERVICE|52=20200423-09:30:40.196|56=MY-INITIATOR-CLIENT1|98=0|108=5|141=Y|10=009|
8=FIX.4.4|9=82|35=0|34=2|49=MY-ACCEPTOR-SERVICE|52=20200423-09:30:46.075|56=MY-INITIATOR-CLIENT1|10=219|
8=FIX.4.4|9=82|35=0|34=2|49=MY-INITIATOR-CLIENT1|52=20200423-09:30:46.077|56=MY-ACCEPTOR-SERVICE|10=221|
8=FIX.4.4|9=82|35=0|34=3|49=MY-ACCEPTOR-SERVICE|52=20200423-09:30:51.066|56=MY-INITIATOR-CLIENT1|10=216|
8=FIX.4.4|9=82|35=0|34=3|49=MY-INITIATOR-CLIENT1|52=20200423-09:30:51.151|56=MY-ACCEPTOR-SERVICE|10=211|
8=FIX.4.4|9=82|35=0|34=4|49=MY-ACCEPTOR-SERVICE|52=20200423-09:30:56.075|56=MY-INITIATOR-CLIENT1|10=222|
8=FIX.4.4|9=82|35=0|34=4|49=MY-INITIATOR-CLIENT1|52=20200423-09:30:56.153|56=MY-ACCEPTOR-SERVICE|10=219|
8=FIX.4.4|9=82|35=0|34=5|49=MY-ACCEPTOR-SERVICE|52=20200423-09:31:02.075|56=MY-INITIATOR-CLIENT1|10=215|
8=FIX.4.4|9=82|35=0|34=5|49=MY-INITIATOR-CLIENT1|52=20200423-09:31:02.076|56=MY-ACCEPTOR-SERVICE|10=216|
8=FIX.4.4|9=95|35=A|34=1|49=MY-INITIATOR-CLIENT1|52=20200423-09:31:54.744|56=MY-ACCEPTOR-SERVICE|108=30|141=Y|10=089|
8=FIX.4.4|9=139|35=5|34=6|49=MY-ACCEPTOR-SERVICE|52=20200423-09:31:54.759|56=MY-INITIATOR-CLIENT1|58=Invalid Logon message: Required tag missing, field=98|10=197|
8=FIX.4.4|9=99|35=A|34=1|49=MY-INITIATOR-CLIENT1|52=20200423-09:32:00.730|56=MY-ACCEPTOR-SERVICE|98=0|108=5|141=Y|10=001|
8=FIX.4.4|9=99|35=A|34=1|49=MY-ACCEPTOR-SERVICE|52=20200423-09:32:00.794|56=MY-INITIATOR-CLIENT1|98=0|108=5|141=Y|10=011|
8=FIX.4.4|9=82|35=0|34=2|49=MY-INITIATOR-CLIENT1|52=20200423-09:32:05.732|56=MY-ACCEPTOR-SERVICE|10=216|
8=FIX.4.4|9=82|35=0|34=2|49=MY-ACCEPTOR-SERVICE|52=20200423-09:32:06.075|56=MY-INITIATOR-CLIENT1|10=217|
8=FIX.4.4|9=95|35=A|34=1|49=MY-INITIATOR-CLIENT1|52=20200423-09:44:35.630|56=MY-ACCEPTOR-SERVICE|108=30|141=Y|10=086|
8=FIX.4.4|9=139|35=5|34=3|49=MY-ACCEPTOR-SERVICE|52=20200423-09:44:35.661|56=MY-INITIATOR-CLIENT1|58=Invalid Logon message: Required tag missing, field=98|10=189|
8=FIX.4.4|9=99|35=A|34=1|49=MY-INITIATOR-CLIENT1|52=20200423-09:44:41.635|56=MY-ACCEPTOR-SERVICE|98=0|108=5|141=Y|10=013|
8=FIX.4.4|9=99|35=A|34=1|49=MY-ACCEPTOR-SERVICE|52=20200423-09:44:41.674|56=MY-INITIATOR-CLIENT1|98=0|108=5|141=Y|10=016|
8=FIX.4.4|9=82|35=0|34=2|49=MY-ACCEPTOR-SERVICE|52=20200423-09:44:47.075|56=MY-INITIATOR-CLIENT1|10=225|
8=FIX.4.4|9=82|35=0|34=2|49=MY-INITIATOR-CLIENT1|52=20200423-09:44:47.077|56=MY-ACCEPTOR-SERVICE|10=227|
8=FIX.4.4|9=82|35=0|34=3|49=MY-ACCEPTOR-SERVICE|52=20200423-09:44:52.075|56=MY-INITIATOR-CLIENT1|10=222|
8=FIX.4.4|9=82|35=0|34=3|49=MY-INITIATOR-CLIENT1|52=20200423-09:44:52.076|56=MY-ACCEPTOR-SERVICE|10=223|
8=FIX.4.4|9=95|35=A|34=1|49=MY-INITIATOR-CLIENT1|52=20200423-09:55:59.065|56=MY-ACCEPTOR-SERVICE|108=30|141=Y|10=096|
8=FIX.4.4|9=139|35=5|34=4|49=MY-ACCEPTOR-SERVICE|52=20200423-09:55:59.114|56=MY-INITIATOR-CLIENT1|58=Invalid Logon message: Required tag missing, field=98|10=191|
8=FIX.4.4|9=99|35=A|34=1|49=MY-INITIATOR-CLIENT1|52=20200423-09:56:05.057|56=MY-ACCEPTOR-SERVICE|98=0|108=5|141=Y|10=014|
8=FIX.4.4|9=99|35=A|34=1|49=MY-ACCEPTOR-SERVICE|52=20200423-09:56:05.088|56=MY-INITIATOR-CLIENT1|98=0|108=5|141=Y|10=018|
8=FIX.4.4|9=180|35=D|34=2|49=MY-INITIATOR-CLIENT1|52=20200423-09:56:08.726|56=MY-ACCEPTOR-SERVICE|11=0.4398933387443761Client1|15=EUR|38=5000000|40=2|54=1|55=EUR/USD|59=0|60=20200423-11:36:48.644|10=161|
8=FIX.4.4|9=180|35=D|34=3|49=MY-INITIATOR-CLIENT1|52=20200423-09:56:08.727|56=MY-ACCEPTOR-SERVICE|11=0.4398933387443761Client1|15=EUR|38=5000000|40=2|54=1|55=EUR/USD|59=0|60=20200423-11:36:48.644|10=163|
8=FIX.4.4|9=180|35=D|34=4|49=MY-INITIATOR-CLIENT1|52=20200423-09:56:08.730|56=MY-ACCEPTOR-SERVICE|11=0.4398933387443761Client1|15=EUR|38=5000000|40=2|54=1|55=EUR/USD|59=0|60=20200423-11:36:48.644|10=158|
8=FIX.4.4|9=127|35=j|34=2|49=MY-ACCEPTOR-SERVICE|52=20200423-09:56:08.766|56=MY-INITIATOR-CLIENT1|45=2|58=Unsupported Message Type|372=D|380=3|10=080|
8=FIX.4.4|9=127|35=j|34=3|49=MY-ACCEPTOR-SERVICE|52=20200423-09:56:08.766|56=MY-INITIATOR-CLIENT1|45=3|58=Unsupported Message Type|372=D|380=3|10=082|
8=FIX.4.4|9=127|35=j|34=4|49=MY-ACCEPTOR-SERVICE|52=20200423-09:56:08.767|56=MY-INITIATOR-CLIENT1|45=4|58=Unsupported Message Type|372=D|380=3|10=085|
8=FIX.4.4|9=82|35=0|34=5|49=MY-INITIATOR-CLIENT1|52=20200423-09:56:14.045|56=MY-ACCEPTOR-SERVICE|10=222|
8=FIX.4.4|9=82|35=0|34=5|49=MY-ACCEPTOR-SERVICE|52=20200423-09:56:14.046|56=MY-INITIATOR-CLIENT1|10=223|
8=FIX.4.4|9=82|35=0|34=6|49=MY-INITIATOR-CLIENT1|52=20200423-09:56:19.044|56=MY-ACCEPTOR-SERVICE|10=227|
8=FIX.4.4|9=82|35=0|34=6|49=MY-ACCEPTOR-SERVICE|52=20200423-09:56:19.046|56=MY-INITIATOR-CLIENT1|10=229|
8=FIX.4.4|9=82|35=0|34=7|49=MY-INITIATOR-CLIENT1|52=20200423-09:56:24.047|56=MY-ACCEPTOR-SERVICE|10=227|
8=FIX.4.4|9=82|35=0|34=7|49=MY-ACCEPTOR-SERVICE|52=20200423-09:56:24.047|56=MY-INITIATOR-CLIENT1|10=227|
8=FIX.4.4|9=82|35=0|34=8|49=MY-INITIATOR-CLIENT1|52=20200423-09:56:29.043|56=MY-ACCEPTOR-SERVICE|10=229|
8=FIX.4.4|9=82|35=0|34=8|49=MY-ACCEPTOR-SERVICE|52=20200423-09:56:29.045|56=MY-INITIATOR-CLIENT1|10=231|
8=FIX.4.4|9=82|35=0|34=9|49=MY-INITIATOR-CLIENT1|52=20200423-09:56:34.044|56=MY-ACCEPTOR-SERVICE|10=227|
8=FIX.4.4|9=82|35=0|34=9|49=MY-ACCEPTOR-SERVICE|52=20200423-09:56:34.045|56=MY-INITIATOR-CLIENT1|10=228|
8=FIX.4.4|9=83|35=0|34=10|49=MY-INITIATOR-CLIENT1|52=20200423-09:56:39.044|56=MY-ACCEPTOR-SERVICE|10=017|
8=FIX.4.4|9=83|35=0|34=10|49=MY-ACCEPTOR-SERVICE|52=20200423-09:56:39.045|56=MY-INITIATOR-CLIENT1|10=018|
8=FIX.4.4|9=83|35=0|34=11|49=MY-INITIATOR-CLIENT1|52=20200423-09:56:44.044|56=MY-ACCEPTOR-SERVICE|10=014|
8=FIX.4.4|9=83|35=0|34=11|49=MY-ACCEPTOR-SERVICE|52=20200423-09:56:44.045|56=MY-INITIATOR-CLIENT1|10=015|
8=FIX.4.4|9=83|35=0|34=12|49=MY-INITIATOR-CLIENT1|52=20200423-09:56:49.045|56=MY-ACCEPTOR-SERVICE|10=021|
8=FIX.4.4|9=83|35=0|34=12|49=MY-ACCEPTOR-SERVICE|52=20200423-09:56:49.045|56=MY-INITIATOR-CLIENT1|10=021|
8=FIX.4.4|9=83|35=0|34=13|49=MY-INITIATOR-CLIENT1|52=20200423-09:56:54.044|56=MY-ACCEPTOR-SERVICE|10=017|
8=FIX.4.4|9=83|35=0|34=13|49=MY-ACCEPTOR-SERVICE|52=20200423-09:56:54.045|56=MY-INITIATOR-CLIENT1|10=018|
8=FIX.4.4|9=95|35=A|34=1|49=MY-INITIATOR-CLIENT1|52=20200423-09:57:17.455|56=MY-ACCEPTOR-SERVICE|108=30|141=Y|10=095|
8=FIX.4.4|9=140|35=5|34=14|49=MY-ACCEPTOR-SERVICE|52=20200423-09:57:17.470|56=MY-INITIATOR-CLIENT1|58=Invalid Logon message: Required tag missing, field=98|10=233|
8=FIX.4.4|9=99|35=A|34=1|49=MY-INITIATOR-CLIENT1|52=20200423-09:57:23.438|56=MY-ACCEPTOR-SERVICE|98=0|108=5|141=Y|10=018|
8=FIX.4.4|9=99|35=A|34=1|49=MY-ACCEPTOR-SERVICE|52=20200423-09:57:23.491|56=MY-INITIATOR-CLIENT1|98=0|108=5|141=Y|10=017|
8=FIX.4.4|9=82|35=0|34=2|49=MY-INITIATOR-CLIENT1|52=20200423-09:57:28.449|56=MY-ACCEPTOR-SERVICE|10=233|
8=FIX.4.4|9=82|35=0|34=2|49=MY-ACCEPTOR-SERVICE|52=20200423-09:57:29.231|56=MY-INITIATOR-CLIENT1|10=223|
8=FIX.4.4|9=82|35=0|34=3|49=MY-ACCEPTOR-SERVICE|52=20200423-09:57:34.230|56=MY-INITIATOR-CLIENT1|10=219|
8=FIX.4.4|9=91|35=1|34=4|49=MY-ACCEPTOR-SERVICE|52=20200423-09:57:36.231|56=MY-INITIATOR-CLIENT1|112=TEST|10=242|
8=FIX.4.4|9=99|35=A|34=1|49=MY-INITIATOR-CLIENT1|52=20200423-09:57:45.460|56=MY-ACCEPTOR-SERVICE|98=0|108=5|141=Y|10=017|
8=FIX.4.4|9=99|35=A|34=1|49=MY-ACCEPTOR-SERVICE|52=20200423-09:57:45.494|56=MY-INITIATOR-CLIENT1|98=0|108=5|141=Y|10=024|
8=FIX.4.4|9=82|35=0|34=2|49=MY-ACCEPTOR-SERVICE|52=20200423-09:57:51.231|56=MY-INITIATOR-CLIENT1|10=218|
8=FIX.4.4|9=82|35=0|34=2|49=MY-INITIATOR-CLIENT1|52=20200423-09:57:51.232|56=MY-ACCEPTOR-SERVICE|10=219|
8=FIX.4.4|9=82|35=0|34=3|49=MY-ACCEPTOR-SERVICE|52=20200423-09:57:56.230|56=MY-INITIATOR-CLIENT1|10=223|
8=FIX.4.4|9=82|35=0|34=3|49=MY-INITIATOR-CLIENT1|52=20200423-09:57:56.231|56=MY-ACCEPTOR-SERVICE|10=224|
8=FIX.4.4|9=82|35=0|34=4|49=MY-ACCEPTOR-SERVICE|52=20200423-09:58:02.230|56=MY-INITIATOR-CLIENT1|10=216|
8=FIX.4.4|9=82|35=0|34=4|49=MY-INITIATOR-CLIENT1|52=20200423-09:58:02.468|56=MY-ACCEPTOR-SERVICE|10=229|
8=FIX.4.4|9=82|35=0|34=5|49=MY-ACCEPTOR-SERVICE|52=20200423-09:58:07.225|56=MY-INITIATOR-CLIENT1|10=226|
8=FIX.4.4|9=91|35=1|34=6|49=MY-ACCEPTOR-SERVICE|52=20200423-09:58:10.231|56=MY-INITIATOR-CLIENT1|112=TEST|10=237|
8=FIX.4.4|9=99|35=A|34=1|49=MY-INITIATOR-CLIENT1|52=20200423-09:58:52.662|56=MY-ACCEPTOR-SERVICE|98=0|108=5|141=Y|10=020|
8=FIX.4.4|9=99|35=A|34=1|49=MY-ACCEPTOR-SERVICE|52=20200423-09:58:52.695|56=MY-INITIATOR-CLIENT1|98=0|108=5|141=Y|10=026|
8=FIX.4.4|9=95|35=A|34=1|49=MY-INITIATOR-CLIENT1|52=20200423-09:59:36.338|56=MY-ACCEPTOR-SERVICE|108=30|141=Y|10=098|
8=FIX.4.4|9=139|35=5|34=2|49=MY-ACCEPTOR-SERVICE|52=20200423-09:59:36.354|56=MY-INITIATOR-CLIENT1|58=Invalid Logon message: Required tag missing, field=98|10=194|
8=FIX.4.4|9=99|35=A|34=1|49=MY-INITIATOR-CLIENT1|52=20200423-09:59:50.171|56=MY-ACCEPTOR-SERVICE|98=0|108=5|141=Y|10=014|
8=FIX.4.4|9=99|35=A|34=1|49=MY-ACCEPTOR-SERVICE|52=20200423-09:59:50.197|56=MY-INITIATOR-CLIENT1|98=0|108=5|141=Y|10=022|
8=FIX.4.4|9=180|35=D|34=2|49=MY-INITIATOR-CLIENT1|52=20200423-09:59:50.318|56=MY-ACCEPTOR-SERVICE|11=0.4398933387443761Client1|15=EUR|38=5000000|40=2|54=1|55=EUR/USD|59=0|60=20200423-11:36:48.644|10=158|
8=FIX.4.4|9=127|35=j|34=2|49=MY-ACCEPTOR-SERVICE|52=20200423-09:59:50.321|56=MY-INITIATOR-CLIENT1|45=2|58=Unsupported Message Type|372=D|380=3|10=067|
8=FIX.4.4|9=180|35=D|34=3|49=MY-INITIATOR-CLIENT1|52=20200423-09:59:50.321|56=MY-ACCEPTOR-SERVICE|11=0.4398933387443761Client1|15=EUR|38=5000000|40=2|54=1|55=EUR/USD|59=0|60=20200423-11:36:48.644|10=153|
8=FIX.4.4|9=127|35=j|34=3|49=MY-ACCEPTOR-SERVICE|52=20200423-09:59:50.325|56=MY-INITIATOR-CLIENT1|45=3|58=Unsupported Message Type|372=D|380=3|10=073|
8=FIX.4.4|9=180|35=D|34=4|49=MY-INITIATOR-CLIENT1|52=20200423-09:59:50.327|56=MY-ACCEPTOR-SERVICE|11=0.4398933387443761Client1|15=EUR|38=5000000|40=2|54=1|55=EUR/USD|59=0|60=20200423-11:36:48.644|10=160|
8=FIX.4.4|9=127|35=j|34=4|49=MY-ACCEPTOR-SERVICE|52=20200423-09:59:50.329|56=MY-INITIATOR-CLIENT1|45=4|58=Unsupported Message Type|372=D|380=3|10=079|
8=FIX.4.4|9=180|35=D|34=5|49=MY-INITIATOR-CLIENT1|52=20200423-09:59:50.329|56=MY-ACCEPTOR-SERVICE|11=0.4398933387443761Client1|15=EUR|38=5000000|40=2|54=1|55=EUR/USD|59=0|60=20200423-11:36:48.644|10=163|
8=FIX.4.4|9=127|35=j|34=5|49=MY-ACCEPTOR-SERVICE|52=20200423-09:59:50.333|56=MY-INITIATOR-CLIENT1|45=5|58=Unsupported Message Type|372=D|380=3|10=076|
8=FIX.4.4|9=82|35=0|34=6|49=MY-INITIATOR-CLIENT1|52=20200423-09:59:55.324|56=MY-ACCEPTOR-SERVICE|10=231|
8=FIX.4.4|9=82|35=0|34=6|49=MY-ACCEPTOR-SERVICE|52=20200423-09:59:55.325|56=MY-INITIATOR-CLIENT1|10=232|
8=FIX.4.4|9=82|35=0|34=7|49=MY-INITIATOR-CLIENT1|52=20200423-10:00:00.328|56=MY-ACCEPTOR-SERVICE|10=204|
8=FIX.4.4|9=82|35=0|34=7|49=MY-ACCEPTOR-SERVICE|52=20200423-10:00:00.328|56=MY-INITIATOR-CLIENT1|10=204|
8=FIX.4.4|9=82|35=0|34=8|49=MY-INITIATOR-CLIENT1|52=20200423-10:00:05.324|56=MY-ACCEPTOR-SERVICE|10=206|
8=FIX.4.4|9=82|35=0|34=8|49=MY-ACCEPTOR-SERVICE|52=20200423-10:00:05.325|56=MY-INITIATOR-CLIENT1|10=207|
8=FIX.4.4|9=82|35=0|34=9|49=MY-INITIATOR-CLIENT1|52=20200423-10:00:10.324|56=MY-ACCEPTOR-SERVICE|10=203|
8=FIX.4.4|9=82|35=0|34=9|49=MY-ACCEPTOR-SERVICE|52=20200423-10:00:10.325|56=MY-INITIATOR-CLIENT1|10=204|
8=FIX.4.4|9=95|35=A|34=1|49=MY-INITIATOR-CLIENT1|52=20200507-08:57:59.405|56=MY-ACCEPTOR-SERVICE|108=30|141=Y|10=098|
8=FIX.4.4|9=139|35=5|34=1|49=MY-ACCEPTOR-SERVICE|52=20200507-08:57:59.468|56=MY-INITIATOR-CLIENT1|58=Invalid Logon message: Required tag missing, field=98|10=204|
8=FIX.4.4|9=99|35=A|34=1|49=MY-INITIATOR-CLIENT1|52=20200507-08:58:05.381|56=MY-ACCEPTOR-SERVICE|98=0|108=5|141=Y|10=018|
8=FIX.4.4|9=99|35=A|34=1|49=MY-ACCEPTOR-SERVICE|52=20200507-08:58:05.427|56=MY-INITIATOR-CLIENT1|98=0|108=5|141=Y|10=019|
8=FIX.4.4|9=82|35=0|34=2|49=MY-INITIATOR-CLIENT1|52=20200507-08:58:10.385|56=MY-ACCEPTOR-SERVICE|10=226|
8=FIX.4.4|9=82|35=0|34=2|49=MY-ACCEPTOR-SERVICE|52=20200507-08:58:11.339|56=MY-INITIATOR-CLIENT1|10=226|
8=FIX.4.4|9=82|35=0|34=3|49=MY-INITIATOR-CLIENT1|52=20200507-08:58:15.386|56=MY-ACCEPTOR-SERVICE|10=233|
8=FIX.4.4|9=82|35=0|34=3|49=MY-ACCEPTOR-SERVICE|52=20200507-08:58:16.340|56=MY-INITIATOR-CLIENT1|10=224|
8=FIX.4.4|9=95|35=A|34=1|49=MY-INITIATOR-CLIENT1|52=20200507-09:00:22.884|56=MY-ACCEPTOR-SERVICE|108=30|141=Y|10=088|
8=FIX.4.4|9=139|35=5|34=4|49=MY-ACCEPTOR-SERVICE|52=20200507-09:00:22.899|56=MY-INITIATOR-CLIENT1|58=Invalid Logon message: Required tag missing, field=98|10=194|
8=FIX.4.4|9=99|35=A|34=1|49=MY-INITIATOR-CLIENT1|52=20200507-09:00:28.864|56=MY-ACCEPTOR-SERVICE|98=0|108=5|141=Y|10=017|
8=FIX.4.4|9=99|35=A|34=1|49=MY-ACCEPTOR-SERVICE|52=20200507-09:00:28.911|56=MY-INITIATOR-CLIENT1|98=0|108=5|141=Y|10=010|
8=FIX.4.4|9=82|35=0|34=2|49=MY-ACCEPTOR-SERVICE|52=20200507-09:00:34.338|56=MY-INITIATOR-CLIENT1|10=218|
8=FIX.4.4|9=82|35=0|34=2|49=MY-INITIATOR-CLIENT1|52=20200507-09:00:34.338|56=MY-ACCEPTOR-SERVICE|10=218|
8=FIX.4.4|9=82|35=0|34=3|49=MY-ACCEPTOR-SERVICE|52=20200507-09:00:39.346|56=MY-INITIATOR-CLIENT1|10=223|
8=FIX.4.4|9=95|35=A|34=1|49=MY-INITIATOR-CLIENT1|52=20200507-09:01:37.051|56=MY-ACCEPTOR-SERVICE|108=30|141=Y|10=081|
8=FIX.4.4|9=139|35=5|34=4|49=MY-ACCEPTOR-SERVICE|52=20200507-09:01:37.067|56=MY-INITIATOR-CLIENT1|58=Invalid Logon message: Required tag missing, field=98|10=188|
8=FIX.4.4|9=99|35=A|34=1|49=MY-INITIATOR-CLIENT1|52=20200507-09:01:43.024|56=MY-ACCEPTOR-SERVICE|98=0|108=5|141=Y|10=003|
8=FIX.4.4|9=99|35=A|34=1|49=MY-ACCEPTOR-SERVICE|52=20200507-09:01:43.070|56=MY-INITIATOR-CLIENT1|98=0|108=5|141=Y|10=004|
8=FIX.4.4|9=82|35=0|34=2|49=MY-ACCEPTOR-SERVICE|52=20200507-09:01:48.339|56=MY-INITIATOR-CLIENT1|10=225|
8=FIX.4.4|9=82|35=0|34=2|49=MY-INITIATOR-CLIENT1|52=20200507-09:01:48.339|56=MY-ACCEPTOR-SERVICE|10=225|
8=FIX.4.4|9=82|35=0|34=3|49=MY-ACCEPTOR-SERVICE|52=20200507-09:01:53.349|56=MY-INITIATOR-CLIENT1|10=223|
8=FIX.4.4|9=82|35=0|34=3|49=MY-INITIATOR-CLIENT1|52=20200507-09:01:53.349|56=MY-ACCEPTOR-SERVICE|10=223|
8=FIX.4.4|9=82|35=0|34=4|49=MY-ACCEPTOR-SERVICE|52=20200507-09:01:58.348|56=MY-INITIATOR-CLIENT1|10=228|
8=FIX.4.4|9=82|35=0|34=4|49=MY-INITIATOR-CLIENT1|52=20200507-09:01:58.348|56=MY-ACCEPTOR-SERVICE|10=228|
8=FIX.4.4|9=95|35=A|34=1|49=MY-INITIATOR-CLIENT1|52=20200507-09:03:46.602|56=MY-ACCEPTOR-SERVICE|108=30|141=Y|10=085|
8=FIX.4.4|9=139|35=5|34=5|49=MY-ACCEPTOR-SERVICE|52=20200507-09:03:46.633|56=MY-INITIATOR-CLIENT1|58=Invalid Logon message: Required tag missing, field=98|10=190|
8=FIX.4.4|9=99|35=A|34=1|49=MY-INITIATOR-CLIENT1|52=20200507-09:03:52.596|56=MY-ACCEPTOR-SERVICE|98=0|108=5|141=Y|10=019|
8=FIX.4.4|9=99|35=A|34=1|49=MY-ACCEPTOR-SERVICE|52=20200507-09:03:52.642|56=MY-INITIATOR-CLIENT1|98=0|108=5|141=Y|10=011|
8=FIX.4.4|9=82|35=0|34=2|49=MY-ACCEPTOR-SERVICE|52=20200507-09:03:58.352|56=MY-INITIATOR-CLIENT1|10=223|
8=FIX.4.4|9=82|35=0|34=2|49=MY-INITIATOR-CLIENT1|52=20200507-09:03:58.352|56=MY-ACCEPTOR-SERVICE|10=223|
8=FIX.4.4|9=82|35=0|34=3|49=MY-ACCEPTOR-SERVICE|52=20200507-09:04:03.347|56=MY-INITIATOR-CLIENT1|10=219|
8=FIX.4.4|9=82|35=0|34=3|49=MY-INITIATOR-CLIENT1|52=20200507-09:04:03.347|56=MY-ACCEPTOR-SERVICE|10=219|
8=FIX.4.4|9=82|35=0|34=4|49=MY-ACCEPTOR-SERVICE|52=20200507-09:04:08.350|56=MY-INITIATOR-CLIENT1|10=219|
8=FIX.4.4|9=82|35=0|34=4|49=MY-INITIATOR-CLIENT1|52=20200507-09:04:08.350|56=MY-ACCEPTOR-SERVICE|10=219|
8=FIX.4.4|9=95|35=A|34=1|49=MY-INITIATOR-CLIENT1|52=20200507-09:11:19.400|56=MY-ACCEPTOR-SERVICE|108=30|141=Y|10=080|
8=FIX.4.4|9=139|35=5|34=5|49=MY-ACCEPTOR-SERVICE|52=20200507-09:11:19.432|56=MY-INITIATOR-CLIENT1|58=Invalid Logon message: Required tag missing, field=98|10=186|
8=FIX.4.4|9=99|35=A|34=1|49=MY-INITIATOR-CLIENT1|52=20200507-09:11:25.401|56=MY-ACCEPTOR-SERVICE|98=0|108=5|141=Y|10=003|
8=FIX.4.4|9=99|35=A|34=1|49=MY-ACCEPTOR-SERVICE|52=20200507-09:11:25.448|56=MY-INITIATOR-CLIENT1|98=0|108=5|141=Y|10=014|
8=FIX.4.4|9=82|35=0|34=2|49=MY-INITIATOR-CLIENT1|52=20200507-09:11:30.402|56=MY-ACCEPTOR-SERVICE|10=208|
8=FIX.4.4|9=82|35=0|34=2|49=MY-ACCEPTOR-SERVICE|52=20200507-09:11:31.339|56=MY-INITIATOR-CLIENT1|10=218|
8=FIX.4.4|9=82|35=0|34=3|49=MY-INITIATOR-CLIENT1|52=20200507-09:11:35.402|56=MY-ACCEPTOR-SERVICE|10=214|
8=FIX.4.4|9=82|35=0|34=3|49=MY-ACCEPTOR-SERVICE|52=20200507-09:11:36.340|56=MY-INITIATOR-CLIENT1|10=216|
8=FIX.4.4|9=95|35=A|34=1|49=MY-INITIATOR-CLIENT1|52=20200507-09:34:56.948|56=MY-ACCEPTOR-SERVICE|108=30|141=Y|10=103|
8=FIX.4.4|9=139|35=5|34=4|49=MY-ACCEPTOR-SERVICE|52=20200507-09:34:57.011|56=MY-INITIATOR-CLIENT1|58=Invalid Logon message: Required tag missing, field=98|10=185|
8=FIX.4.4|9=99|35=A|34=1|49=MY-INITIATOR-CLIENT1|52=20200507-09:35:02.934|56=MY-ACCEPTOR-SERVICE|98=0|108=5|141=Y|10=015|
8=FIX.4.4|9=99|35=A|34=1|49=MY-ACCEPTOR-SERVICE|52=20200507-09:35:02.964|56=MY-INITIATOR-CLIENT1|98=0|108=5|141=Y|10=018|
8=FIX.4.4|9=82|35=0|34=2|49=MY-INITIATOR-CLIENT1|52=20200507-09:35:07.934|56=MY-ACCEPTOR-SERVICE|10=228|
8=FIX.4.4|9=82|35=0|34=2|49=MY-ACCEPTOR-SERVICE|52=20200507-09:35:08.809|56=MY-INITIATOR-CLIENT1|10=230|
8=FIX.4.4|9=82|35=0|34=3|49=MY-ACCEPTOR-SERVICE|52=20200507-09:35:13.816|56=MY-INITIATOR-CLIENT1|10=225|
8=FIX.4.4|9=82|35=0|34=3|49=MY-INITIATOR-CLIENT1|52=20200507-09:35:13.816|56=MY-ACCEPTOR-SERVICE|10=225|
8=FIX.4.4|9=82|35=0|34=4|49=MY-INITIATOR-CLIENT1|52=20200507-09:35:18.925|56=MY-ACCEPTOR-SERVICE|10=232|
8=FIX.4.4|9=82|35=0|34=4|49=MY-ACCEPTOR-SERVICE|52=20200507-09:35:18.925|56=MY-INITIATOR-CLIENT1|10=232|
8=FIX.4.4|9=95|35=A|34=1|49=MY-INITIATOR-CLIENT1|52=20200507-09:35:47.422|56=MY-ACCEPTOR-SERVICE|108=30|141=Y|10=091|
8=FIX.4.4|9=139|35=5|34=5|49=MY-ACCEPTOR-SERVICE|52=20200507-09:35:47.438|56=MY-INITIATOR-CLIENT1|58=Invalid Logon message: Required tag missing, field=98|10=199|
8=FIX.4.4|9=99|35=A|34=1|49=MY-INITIATOR-CLIENT1|52=20200507-09:35:53.398|56=MY-ACCEPTOR-SERVICE|98=0|108=5|141=Y|10=025|
8=FIX.4.4|9=99|35=A|34=1|49=MY-ACCEPTOR-SERVICE|52=20200507-09:35:53.429|56=MY-INITIATOR-CLIENT1|98=0|108=5|141=Y|10=020|
8=FIX.4.4|9=82|35=0|34=2|49=MY-INITIATOR-CLIENT1|52=20200507-09:35:58.389|56=MY-ACCEPTOR-SERVICE|10=238|
8=FIX.4.4|9=82|35=0|34=2|49=MY-ACCEPTOR-SERVICE|52=20200507-09:35:58.811|56=MY-INITIATOR-CLIENT1|10=228|
8=FIX.4.4|9=82|35=0|34=3|49=MY-INITIATOR-CLIENT1|52=20200507-09:36:03.394|56=MY-ACCEPTOR-SERVICE|10=226|
8=FIX.4.4|9=82|35=0|34=3|49=MY-ACCEPTOR-SERVICE|52=20200507-09:36:03.816|56=MY-INITIATOR-CLIENT1|10=225|
8=FIX.4.4|9=180|35=D|34=4|49=MY-INITIATOR-CLIENT1|52=20200507-09:36:07.584|56=MY-ACCEPTOR-SERVICE|11=0.4398933387443761Client1|15=EUR|38=5000000|40=2|54=1|55=EUR/USD|59=0|60=20200423-11:36:48.644|10=165|
8=FIX.4.4|9=180|35=D|34=5|49=MY-INITIATOR-CLIENT1|52=20200507-09:36:07.584|56=MY-ACCEPTOR-SERVICE|11=0.4398933387443761Client1|15=EUR|38=5000000|40=2|54=1|55=EUR/USD|59=0|60=20200423-11:36:48.644|10=166|
8=FIX.4.4|9=180|35=D|34=6|49=MY-INITIATOR-CLIENT1|52=20200507-09:36:07.584|56=MY-ACCEPTOR-SERVICE|11=0.4398933387443761Client1|15=EUR|38=5000000|40=2|54=1|55=EUR/USD|59=0|60=20200423-11:36:48.644|10=167|
8=FIX.4.4|9=180|35=D|34=7|49=MY-INITIATOR-CLIENT1|52=20200507-09:36:07.584|56=MY-ACCEPTOR-SERVICE|11=0.4398933387443761Client1|15=EUR|38=5000000|40=2|54=1|55=EUR/USD|59=0|60=20200423-11:36:48.644|10=168|
8=FIX.4.4|9=127|35=j|34=4|49=MY-ACCEPTOR-SERVICE|52=20200507-09:36:07.709|56=MY-INITIATOR-CLIENT1|45=4|58=Unsupported Message Type|372=D|380=3|10=081|
8=FIX.4.4|9=127|35=j|34=5|49=MY-ACCEPTOR-SERVICE|52=20200507-09:36:07.709|56=MY-INITIATOR-CLIENT1|45=5|58=Unsupported Message Type|372=D|380=3|10=083|
8=FIX.4.4|9=127|35=j|34=6|49=MY-ACCEPTOR-SERVICE|52=20200507-09:36:07.709|56=MY-INITIATOR-CLIENT1|45=6|58=Unsupported Message Type|372=D|380=3|10=085|
8=FIX.4.4|9=127|35=j|34=7|49=MY-ACCEPTOR-SERVICE|52=20200507-09:36:07.709|56=MY-INITIATOR-CLIENT1|45=7|58=Unsupported Message Type|372=D|380=3|10=087|
8=FIX.4.4|9=82|35=0|34=8|49=MY-ACCEPTOR-SERVICE|52=20200507-09:36:12.808|56=MY-INITIATOR-CLIENT1|10=231|
8=FIX.4.4|9=82|35=0|34=8|49=MY-INITIATOR-CLIENT1|52=20200507-09:36:12.808|56=MY-ACCEPTOR-SERVICE|10=231|
8=FIX.4.4|9=82|35=0|34=9|49=MY-ACCEPTOR-SERVICE|52=20200507-09:36:17.809|56=MY-INITIATOR-CLIENT1|10=238|
8=FIX.4.4|9=82|35=0|34=9|49=MY-INITIATOR-CLIENT1|52=20200507-09:36:17.809|56=MY-ACCEPTOR-SERVICE|10=238|
8=FIX.4.4|9=83|35=0|34=10|49=MY-ACCEPTOR-SERVICE|52=20200507-09:36:22.802|56=MY-INITIATOR-CLIENT1|10=012|
8=FIX.4.4|9=83|35=0|34=10|49=MY-INITIATOR-CLIENT1|52=20200507-09:36:22.802|56=MY-ACCEPTOR-SERVICE|10=012|
8=FIX.4.4|9=83|35=0|34=11|49=MY-ACCEPTOR-SERVICE|52=20200507-09:36:27.812|56=MY-INITIATOR-CLIENT1|10=019|
8=FIX.4.4|9=83|35=0|34=11|49=MY-INITIATOR-CLIENT1|52=20200507-09:36:27.812|56=MY-ACCEPTOR-SERVICE|10=019|
