8=FIX.4.4|9=99|35=A|34=1|49=MY-INITIATOR-CLIENT1|52=20200507-09:35:53.398|56=MY-ACCEPTOR-SERVICE|98=0|108=5|141=Y|10=025|8=FIX.4.4|9=82|35=0|34=2|49=MY-INITIATOR-CLIENT1|52=20200507-09:35:58.389|56=MY-ACCEPTOR-SERVICE|10=238|8=FIX.4.4|9=82|35=0|34=3|49=MY-INITIATOR-CLIENT1|52=20200507-09:36:03.394|56=MY-ACCEPTOR-SERVICE|10=226|8=FIX.4.4|9=180|35=D|34=4|49=MY-INITIATOR-CLIENT1|52=20200507-09:36:07.584|56=MY-ACCEPTOR-SERVICE|11=0.4398933387443761Client1|15=EUR|38=5000000|40=2|54=1|55=EUR/USD|59=0|60=20200423-11:36:48.644|10=165|8=FIX.4.4|9=180|35=D|34=5|49=MY-INITIATOR-CLIENT1|52=20200507-09:36:07.584|56=MY-ACCEPTOR-SERVICE|11=0.4398933387443761Client1|15=EUR|38=5000000|40=2|54=1|55=EUR/USD|59=0|60=20200423-11:36:48.644|10=166|8=FIX.4.4|9=180|35=D|34=6|49=MY-INITIATOR-CLIENT1|52=20200507-09:36:07.584|56=MY-ACCEPTOR-SERVICE|11=0.4398933387443761Client1|15=EUR|38=5000000|40=2|54=1|55=EUR/USD|59=0|60=20200423-11:36:48.644|10=167|8=FIX.4.4|9=180|35=D|34=7|49=MY-INITIATOR-CLIENT1|52=20200507-09:36:07.584|56=MY-ACCEPTOR-SERVICE|11=0.4398933387443761Client1|15=EUR|38=5000000|40=2|54=1|55=EUR/USD|59=0|60=20200423-11:36:48.644|10=168|8=FIX.4.4|9=82|35=0|34=8|49=MY-INITIATOR-CLIENT1|52=20200507-09:36:12.808|56=MY-ACCEPTOR-SERVICE|10=231|8=FIX.4.4|9=82|35=0|34=9|49=MY-INITIATOR-CLIENT1|52=20200507-09:36:17.809|56=MY-ACCEPTOR-SERVICE|10=238|8=FIX.4.4|9=83|35=0|34=10|49=MY-INITIATOR-CLIENT1|52=20200507-09:36:22.802|56=MY-ACCEPTOR-SERVICE|10=012|8=FIX.4.4|9=83|35=0|34=11|49=MY-INITIATOR-CLIENT1|52=20200507-09:36:27.812|56=MY-ACCEPTOR-SERVICE|10=019|